:020000040800F2
:1000000000400020D9010008452C0008472C0008BA
:1000100000000000000000000000000000000000E0
:10002000000000000000000000000000492C000853
:1000300000000000000000004B2C00084D2C0008C0
:10004000D9030008D9030008D9030008D903000820
:10005000D9030008D9030008D9030008D903000810
:10006000D9030008D9030008D9030008D903000800
:10007000D9030008D9030008D9030008D9030008F0
:10008000D9030008D9030008D9030008D9030008E0
:10009000D9030008D9030008D9030008D9030008D0
:1000A000D9030008D9030008D9030008D9030008C0
:1000B000D9030008D9030008D9030008D9030008B0
:1000C00030B583B000F03CF9314B324A1360324A0C
:1000D0001360324B324A33498B4204D211681960A3
:1000E00004330432F7E72B4B1A682F4B9A4200D0A7
:1000F000FEE7294B1A682D4B9A42F9D1244B2C4A22
:1001000013602C4A13602C4B02E000221A60043367
:100110002A4A9342F9D3264B1B68002B03D1254B67
:100120001B68002B00D0FEE700F00EF9694601A81D
:1001300000F0B4F8224C234BE41AA4100025AC4282
:1001400014DC214C214BE41AA4100025AC4213DC32
:100150000099019802F074FC05001D4C1D4BE41A37
:10016000A410002C0EDC280000F072F8AA00154B39
:10017000D35898470135E2E7AA00144BD358984763
:100180000135E3E7013CA200124BD3589847E8E75A
:10019000BABADECA00000020BC090020000000201E
:1001A000B8980008C0090020785634123254769866
:1001B000C0090020880C0020C00900208C0C002001
:1001C00050020008500200085002000850020008C7
:1001D000500200085002000810B5FFF771FF00BE82
:1001E000FEE704207146084202D0EFF3098001E0E7
:1001F000EFF3088071460B4A104770B504000D00FC
:10020000044800F053F82900200000F0A1F800BED7
:10021000FEE7C0464492000800BEFEE700BEFEE7CF
:0802200070470000FB0100081B
:10022800B898000800000020C0090020B89800080D
:100238000000000000000000C00900208C0C002015
:080248000000000000000000AE
:10025000FEE7000010B503000D4A1268002A0BD01B
:100260000B4A1068033303229343C318094A93428D
:1002700006D8074A136010BD054A07491160EFE729
:1002800002F076FD0C23036001204042F3E7C046F4
:10029000C4090020003C00208C0C002001230360D6
:1002A000014B0B607047C046040000200FB400B53E
:1002B00083B004AB04CB01938021064802F0CAFD51
:1002C000002803DD0100034800F036F803B008BC45
:1002D00004B01847CC090020F0B5C64600B586B07A
:1002E000040001914356002B01D0019F1CE004261D
:1002F000301C211CABBE041C019806B004BC904607
:10030000F0BD0022A25602A9CA5401330134B342FF
:10031000F7D302AA904600224146CA540425281C5D
:100320004146ABBE8046BF1B002FE5D03E00102FDC
:1003300000D910260023EAE710B5FFF7CDFF10BD66
:1003400010B500F04BF810BD10B500F077F810BDF7
:1003500070B504000D001548FFF7A8FF2168144888
:10036000FFF7A4FF61681348FFF7A0FFA1681248D8
:10037000FFF79CFFE1681148FFF798FF21691048DB
:10038000FFF794FF61690F48FFF790FFA1690E48DE
:10039000FFF78CFFE1690D48FFF788FF0C48FFF776
:1003A00085FF29000B48FFF781FF70BD949100087D
:1003B000A4910008B4910008C4910008D4910008E9
:1003C000E4910008F49100080492000814920008D7
:1003D000249200082C920008FEE70000114B1A68D6
:1003E00001210A431A605A680F4802405A601A688D
:1003F0000E4802401A601A680D4802401A605A6896
:100400000C4802405A60DA6A0F208243DA621A6BA3
:10041000094802401A635A6B8A435A6300229A6061
:100420007047C046001002400CB8FF08FFFFF6FE00
:10043000FFFFFBFFFFFFC0FF2CFEFCFF10B5254BAD
:100440005A680C231340042B16D0082B18D0002B0D
:1004500003D0214B214A1A6002E01F4B1F4A1A6049
:100460001C4B5A6812090F2313401D4AD35C1A4AC9
:100470001168D940116010BD174B1A4A1A60EFE796
:10048000144A50685368C02149020B40800C0F2168
:100490000840841CD26A11400131802252029342EA
:1004A0000AD0C022520293420DD00C4802F0D4FB75
:1004B0006043094B1860D3E70A4802F0CDFB604364
:1004C000054B1860CCE7084802F0C6FB6043024BBE
:1004D0001860C5E7001002400C00002000127A00EE
:1004E000549200080024F400006CDC0210B50400F3
:1004F00001F0D8FAFA21890002F0AEFB00F0EEFA22
:10050000012000222100404200F0ACFA002010BD82
:1005100010B5064A136810210B4313600020FFF743
:10052000E5FF02F0ABFA002010BDC04600200240FB
:10053000024A1368013313607047C046840A0020E2
:10054000014B18687047C046840A002030B583B05C
:100550000190FFF7F5FF0500019C631C00D00134FA
:10056000FFF7EEFF401BA042FAD303B030BD0000FE
:1005700070B5041E00D170E1B94B02689A4204D0F4
:100580007421FF31B74802F077FA6368002B08D076
:100590008022D205934204D080221206934200D0DA
:1005A000DAE0A368002B06D0082B04D0102B02D071
:1005B000182B00D0D6E0E368002B02D0202B00D00F
:1005C000D6E02369013B012B00D9D7E0236A012B38
:1005D00000D9D9E0636A012B00D9DBE0E36A002B84
:1005E0000CD08022D200934208D080221201934284
:1005F00004D0C0221201934200D0D1E0A36A002BA4
:100600000ED0402B0CD0802B0AD0C02B08D08022DB
:100610005200934204D0C222FF32934200D0C5E080
:10062000236B012B00D9C7E06369042B02D0082B90
:1006300000D0C7E0636B012B00D9C9E0A369012B8F
:1006400000D9CBE0E369012B00D9CDE0636C002B2E
:1006500000D1CFE0636CDB0600D5F8E021688B6841
:1006600004221A4000D0F2E0636C7F480340063059
:10067000FF3003436364886803230340012B00D1E8
:10068000BFE0CB6818208343A0680343CB60216898
:100690000B699B009B08606803430B612168CB6872
:1006A00072480340CB60A3699B03E169C9030B4314
:1006B000216A48030343606B012800D1AAE080202F
:1006C00040010343E06803432069022800D1A3E00E
:1006D0001343226B52001343626A012A00D19DE04A
:1006E000A26AC221FF318A4202D0E16A0A4313435F
:1006F0002168CA681A43CA60A26B802149058A42F0
:100700000DD0012A0BD0022A09D0032A07D0042ACF
:1007100005D0052A03D0062A01D0072A0AD120686D
:10072000416907229143416120684169A56B2A40D4
:100730000A4342612268D2684D490A409A427CD0FD
:10074000636C12229343023A13436364A36C0F3A1F
:100750001343A36401207FE0BA214900414802F01D
:100760008BF91EE77621FF313E4802F085F922E73A
:10077000BB2149003B4802F07FF922E77821FF3195
:10078000384802F079F921E7BC214900354802F0E8
:1007900073F91FE77A21FF31324802F06DF91DE746
:1007A000BD2149002F4802F067F927E77C21FF317E
:1007B0002C4802F061F933E7BE214900294802F0D4
:1007C0005BF931E77E21FF31264802F055F931E728
:1007D000BF214900234802F04FF92FE78021FF3164
:1007E000204802F049F92DE7C02149001D4802F0D8
:1007F00043F92BE7A3644022A354200002F068F9D8
:1008000028E70B68DB0700D548E7CB681B0400D559
:1008100044E736E7100054E7042259E7002903D1E2
:100820008022520213435BE7626C20210A43626418
:10083000A26C1F390A43A26452E70023A364636CCD
:1008400003229343023A13436364002004E0636C81
:10085000102213436364012070BD0120FCE7C046F1
:10086000002401406C920008FDFEFFFF1902FEFF0C
:10087000E7FF3F8330B583B004000D0000230193F0
:100880006A4B02689A4203D069496A4802F0F4F858
:100890002B68122B7CD86B68674A94466344012B03
:1008A0007BD8A36B80225205934222D0012B20D00B
:1008B000022B1ED0032B1CD0042B1AD0052B18D0D2
:1008C000062B16D0072B14D0AB68934211D0012B06
:1008D0000FD0022B0DD0032B0BD0042B09D0052BEE
:1008E00007D0062B05D0072B03D05449514802F0FE
:1008F000C3F84023E35C012B00D194E040230122A4
:10090000E25423689A6852077FD44D4A696891423D
:1009100060D09A6A0121286881400A439A62A36BD9
:100920008022520593421ED0012B1CD0022B1AD0DC
:10093000032B18D0042B16D0052B14D0062B12D065
:10094000072B10D02268516907230B40A9689942F0
:1009500009D0516907239943516121684A69A86800
:10096000034013434B612B681A00103A022A56D8F1
:10097000344A1268102B18D0112B13D080235B043B
:100980001343304A13602B68102B11D0002041E034
:100990002D49284802F070F87DE72C49254802F0DF
:1009A0006BF87EE78023DB03EAE780231B04E7E79D
:1009B000274B1868274902F04FF9830018184300A5
:1009C000019302E0019B013B0193019B002BF9D1B4
:1009D00000201FE09A6A0121286881408A439A62B8
:1009E0002B681A00103A022A1BD8164A1268102BDC
:1009F00009D0112B05D0184B1340124A1360002068
:100A000008E0164BF8E7164BF6E7636C2022134319
:100A10006364012040230022E25403B030BD002073
:100A2000F8E70020F6E70220F7E7C046002401407F
:100A3000510600006C92000800F0FFFF570600000E
:100A40000110000008270140520600005306000074
:100A50000C00002040420F00FFFFFFFEFFFFBFFF22
:100A6000FFFF7FFF70B504000D00032913D8002C91
:100A700016DBA1081648C03189000A5803231C4020
:100A8000E400FC331E00A640B243AD012B40A3405E
:100A900013430B5070BD9B210E4801F0EDFFE6E7BC
:100AA000E4B20F232340083B9B0806339B000A4A0D
:100AB00094466344586803210C40E400FF2211006F
:100AC000A1408843AD012A40A24002435A60E1E7B9
:100AD00000E100E09892000800ED00E001380A4BC8
:100AE00098420FD8094A50600948036A1B021B0A42
:100AF000C02109060B430362002393600733136090
:100B0000002070470120FCE7FFFFFF0010E000E03D
:100B100000ED00E010B50400042801D0002807D142
:100B2000042C0BD0084A136804218B43136010BDBA
:100B30003621FF31054801F09FFFF1E7024A1368B3
:100B400004210B431360F2E710E000E098920008E4
:100B5000704710B5FFF7FCFF10BD0000F0B5D6469A
:100B60004F464646C0B582B006000C009023DB0518
:100B7000984212D0944B98420FD0944B98420CD08C
:100B8000934B984209D0934B984206D0924B98428F
:100B900003D0C121914801F06FFF23681A0401D0EE
:100BA0001B0C03D0C2218D4801F066FF6368012B46
:100BB00019D9112B17D0022B15D0122B13D0884A1C
:100BC000934210D0874A93420DD0874A93420AD06D
:100BD000864A934207D0864A934204D0854A93427C
:100BE00001D0032B04D1A368022B06D8002547E0CF
:100BF000C3217A4801F040FFF5E7C421774801F0AE
:100C00003BFFF3E7D421754801F036FF5EE0E821B1
:100C1000724801F031FF85E0042100E0002191409D
:100C20000A00024302339B0073495A50734B1A68FF
:100C3000FB43110019406068C00301D53A4311001D
:100C40006E4A11605268110019406068800301D536
:100C50003A431100694A5160926811001940606876
:100C6000C00201D53A431100644A9160D268134032
:100C70006168890201D53B001343604AD3600135A6
:100C800027683A00EA4000D197E00122AA40904646
:100C90001740F4D06368022B01D0122B25D190238A
:100CA000DB059E420FD0484B9E420CD0474B9E42E4
:100CB00009D0474B9E4206D0464B9E4203D0D321DB
:100CC000464801F0D9FE2369072B9BD8EB0808336F
:100CD0009B00995907222A4092000F20904081439F
:100CE0002069904002000A439A5132686B009A468C
:100CF0000323190050468140C94389460A40616870
:100D00000B4083401343336063685A1E012A03D9A2
:100D1000112B01D0122B17D1E368012B02D9032B21
:100D200000D074E7B2684B461A40E36851468B40E6
:100D30001343B360726843469A43636819090123F9
:100D40000B40AB4013437360F2684B461A40A368F4
:100D500051468B401343F3606368DB008FD5284A0C
:100D60009169012319439161926913400193019B99
:100D7000AB089A1C920020495058032129408A0050
:100D80000F21914088439021C9058E4200D145E74B
:100D90000D498E420BD00D498E420AD00C498E422D
:100DA00009D00C498E4200D136E7052137E70121F1
:100DB00035E7022133E7032131E702B01CBC90463E
:100DC0009946A246F0BDC04600040048000800480D
:100DD000000C00480010004800140048C8920008A9
:100DE000000011100000211000003110000012104E
:100DF00000002210000032100000014000040140F9
:100E00000010024070B506000C001500002905D046
:100E1000012D09D8002D0DD1B46270BDD621490035
:100E2000054801F029FEF3E7AE21FF31024801F049
:100E300023FEEFE7B461F0E7C892000870B5050043
:100E40000C1E04D1E1214900034801F015FE6B6935
:100E50005C406C6170BDC046C892000810B5041EAD
:100E600000D1BBE003685E4A934207D05D4A9342DB
:100E700004D09E21FF315C4801F0FEFD5B4BA2686F
:100E80009A4200D96DE0E368013B012B00D96EE086
:100E90002369002B04D080221202934200D06CE020
:100EA0006369FF2B00D96EE0A369072B00D970E0BE
:100EB000E369002B04D080221203934200D06EE03D
:100EC000236A002B04D080229202934200D06CE06F
:100ED0004123E35C002B00D16DE041232422E25446
:100EE0002268136801218B4313602268404B6168BC
:100EF0000B401361226893683E490B409360E3689E
:100F0000012B5FD0226884231B02A1680B439360EE
:100F1000E368022B5DD022685168374B0B43536066
:100F20002268D36833490B40D36023696269134355
:100F3000A269120221681343CB602268E369216A27
:100F40000B4313602268136801210B4313600023D5
:100F5000636441221F31A15423630132A354002052
:100F600010BDCF214900204801F086FD8BE7A0216C
:100F7000FF311D4801F080FD8AE7D02149001A4861
:100F800001F07AFD8CE7A221FF31174801F074FDD2
:100F90008AE7D1214900144801F06EFD88E7A421B9
:100FA000FF31114801F068FD8AE7D22149000E485F
:100FB00001F062FD8CE740330022E254200001F092
:100FC000ABFD8AE7226880231B02A1680B43936074
:100FD0009EE72368802212015A609CE70120BFE748
:100FE0000054004000580040F8920008FF03000041
:100FF000FFFFFFF0FF7FFFFF00800002F8B5040055
:101000000D0003681E4A934206D01E4A934203D045
:1010100072211D4801F030FD002D03D080235B01BB
:101020009D4224D14123E35C202B25D12033E35C76
:10103000012B23D040210122625441202423235438
:101040002668336893433360266833680F4F3B400C
:101050003360266833681D43356025682B68134369
:101060002B602023235400236354002005E07321C8
:10107000054801F001FDD5E70220F8BD0220FCE79C
:10108000005400400058004024930008FFEFFFFF89
:10109000F8B504000D0003681B4A934206D01B4AB2
:1010A000934203D0A0211A4801F0E6FC0F2D22D86C
:1010B0004123E35C202B23D12033E35C012B21D09F
:1010C000402101226254412024232354266833689E
:1010D00093433360266833680E4F3B402D021D4317
:1010E000356025682B6813432B602023235400238D
:1010F0006354002005E0A121054801F0BDFCD7E7BD
:101100000220F8BD0220FCE70054004000580040D7
:1011100024930008FFF0FFFF70B582B0041E27D0B3
:101120002368002B01D09B0628D02368DB0742D51B
:101130006368012B01D9052B26D1C44B5A680C23B7
:101140001340042B2FD0C14B5A680C231340082B9B
:1011500020D06368012B5BD0002B70D1BB4B1A6889
:10116000BB490A401A601A68BA490A401A6055E039
:1011700089214900B84801F07FFCD1E71421FF31F3
:10118000B54801F079FCD0E71A21FF31B24801F0EF
:1011900073FCD2E7AD4B5B68C02252021340802241
:1011A00052029342D5D1A94B1B689B0303D56368B8
:1011B000002B00D1FDE223689B0700D48BE0E3689D
:1011C000012B62D823691F2B65D8A04B5B680C22CA
:1011D0001A426FD09D4B5A680C231340082B60D0E5
:1011E000E368002B00D19BE0984A136801210B4370
:1011F0001360FFF7A5F90500944B1B689B0700D50A
:1012000085E0FFF79DF9401B0228F5D90320D3E2C2
:101210008E4A116880235B020B4313606368002BC6
:1012200025D0FFF78DF90500884B1B689B03C2D4BE
:10123000FFF786F9401B6428F6D90320BCE2052B92
:1012400009D0824B1A6882490A401A601A6881499B
:101250000A401A60E2E77D4B19688022D2020A43F5
:101260001A601968802252020A431A60D6E7FFF713
:1012700067F90500754B1B689B039CD5FFF760F968
:10128000401B6428F6D9032096E24E21FF317248B4
:1012900001F0F2FB96E7A72149006F4801F0ECFB53
:1012A00093E76A4B5B68C02252021340802212020D
:1012B000934295D1654B1B689B0704D5E368012BCE
:1012C00001D0012078E261490B68F822934322693A
:1012D000D20013430B6023681B074DD5E369012B34
:1012E00031D8E369002B34D0584A536A01210B43AB
:1012F0005362FFF725F90500544B5B6A9B073BD40B
:10130000FFF71EF9401B0228F6D9032054E24F498B
:101310000B68F82293432269D20013430B60DAE78B
:101320004A4A136801218B431360FFF709F905004E
:10133000464B1B689B07CED5FFF702F9401B0228DE
:10134000F6D9032038E2C7214900434801F094FB55
:10135000C7E73E4A536A01218B435362FFF7F0F817
:1013600005003A4B5B6A9B0706D5FFF7E9F8401B7F
:101370000228F6D903201FE223685B0700D48CE023
:10138000A368012B01D9052B21D1304BDB69DB0090
:1013900023D42E4AD169802040050143D161D3690D
:1013A00003400193019B01252C4B1B68DB0516D5DF
:1013B000A368012B27D0002B3CD1244B1A6A0121B2
:1013C0008A431A621A6A03318A431A6220E0DD21D5
:1013D0004900214801F050FBD7E70025E4E71F4A08
:1013E000116880235B000B431360FFF7A9F8060028
:1013F0001A4B1B68DB05DBD4FFF7A2F8801B6428BF
:10140000F6D90320D8E1114A136A01210B43136274
:10141000A368002B30D0FFF793F806000B4B1B6A34
:101420009B0738D4FFF78CF8801B0D4B9842F5D9F9
:101430000320C1E1052B15D0044B1A6A01218A4310
:101440001A621A6A03318A431A62E1E70010024005
:10145000FFFFFEFFFFFFFBFF7493000800700040DA
:1014600088130000BC4B1A6A04210A431A621A6AE4
:1014700003390A431A62CBE7FFF762F80600B64B5E
:101480001B6A9B0707D5FFF75BF8801BB34B98429D
:10149000F5D9032090E1012D45D02368DB0618D54E
:1014A0006369012B01D9053343D1A3691F2B46D8AA
:1014B0006369012B48D0053366D1A74A536B0421D9
:1014C0008B435363536BF4318B43A169C9000B43C6
:1014D000536323689B0600D495E0236A012B6AD8E6
:1014E0009D4B5A680C2313400C2B70D09A4B5A68B2
:1014F0000C231340082B63D0236A002B70D0964A2C
:10150000516B80235B020B435363FFF719F805000F
:10151000914B5B6BDB0376D4FFF712F8401B02287C
:10152000F6D9032048E18C4AD3698D490B40D36139
:10153000B3E7802189008B4801F09EFAB5E78A491C
:10154000884801F099FAB3E7834B5A6B04210A43A8
:101550005A635A6B03390A435A63FEF7F1FF0500D9
:101560007D4B5B6B9B0706D4FEF7EAFF401B02280E
:10157000F6D9032020E178494B6BF8229343A26906
:10158000D20013434B63A4E7734B5A6B04210A4305
:101590005A635A6B03398A435A63FEF7D1FF050039
:1015A0006D4B5B6B9B0794D5FEF7CAFF401B02286F
:1015B000F6D9032000E16D496A4801F05DFA8FE732
:1015C000654B5B68C02252021340934294D1624B38
:1015D0005B6BDB0317D5236A012B14D00120EBE0F2
:1015E0005D4A536B62490B405363FEF7A9FF050048
:1015F000594B5B6BDB0306D5FEF7A2FF401B0228AD
:10160000F6D90320D8E0636A022B6BD8636A002BFB
:1016100000D1D0E0504A51680C220A40082A00D17B
:10162000CCE0022B00D0AFE0A36A802212029342EA
:1016300007D0C0225202934203D08022520293422A
:1016400056D1E36A002B37D08022D202934233D0A6
:101650008022120393422FD0C022120393422BD038
:1016600080225203934227D0A0225203934223D0D8
:10167000C022520393421FD0E022520393421BD058
:1016800080229203934217D090229203934213D068
:10169000A022920393420FD0B022920393420BD028
:1016A000C0229203934207D0D0229203934203D0E8
:1016B000E0229203934220D1236B0F2B22D8264A9B
:1016C00013682C490B401360FEF73AFF0500224BCC
:1016D0001B689B011BD5FEF733FF401B0228F6D980
:1016E000032069E09D2189001E4801F0C5F98DE7BE
:1016F00021491C4801F0C0F9A3E72049194801F02D
:10170000BBF9D9E71E49174801F0B6F9D7E7124BE4
:10171000DA6A0F218A43216B0A43DA625A6819494F
:101720000A40E16AA06A01430A435A6019688022AC
:1017300052040A431A60FEF703FF0400064B1B68BD
:101740009B0106D4FEF7FCFE001B0228F6D90320FD
:1017500032E0002030E0C046001002408813000054
:10176000FFFFFFEF74930008010200003E0200003B
:10177000FFFFFEFFFFFFFFFE7D0200007E02000074
:101780007F020000FF7FC2FF0D4A13680D490B4026
:101790001360FEF7D5FE0400094B1B689B0106D5BC
:1017A000FEF7CEFE001B0228F6D9032004E000203D
:1017B00002E0012000E0002002B070BD0120FBE744
:1017C00000100240FFFFFFFE30B589B004AA214B94
:1017D000180032C832C2110002680A606A4610332B
:1017E00013CB13C21B6813601B4B5A680C231340A6
:1017F000082B08D00C2B2AD0042B01D0174800E06E
:10180000174809B030BD910C0F23194004A8445C5F
:101810001149C96A0B406946C95CC0235B021A4082
:1018200080235B029A4208D0C0235B029A4209D00F
:101830000A4801F011FA6043E3E7094801F00CFAA5
:101840006043DEE7074801F007FA6043D9E705483F
:10185000D7E7C046549300080010024000127A00F7
:101860000024F400006CDC0270B504000D000028B8
:1018700016D023685B0718D0012D1BD87D4B1A6842
:1018800001231340AB421BD27A490B6801229343D8
:101890002B430B600B681A40AA4211D0012070BD87
:1018A0007549764801F0E8F8E3E77549734801F0B7
:1018B000E3F8E1E7B7218900704801F0DDF8DDE7E2
:1018C00023689B0719D5A368002B0FD0802B0DD060
:1018D000902B0BD0A02B09D0B02B07D0C02B05D05C
:1018E000D02B03D0E02B01D0F02B19D1654A5368DF
:1018F000F0218B43A1680B4353602368DB0771D54C
:101900006368032B11D86368012B13D0022B33D0EB
:10191000032B37D05B4A1268920710D40120BEE730
:101920005949564801F0A8F8E0E75849534801F0F2
:10193000A3F8E8E7534A1268920300D497E05149AC
:101940004A680320824313434B60FEF7F9FD06000B
:101950006368012B1CD0022B28D0032B34D0494BB9
:101960005B680C221A423DD0FEF7EAFD801B484B13
:101970009842F4D9032092E7424A12689201DED4D9
:1019800001208CE73F4A526BD203D8D4012086E76E
:101990003C4B5A680C231340042B23D0FEF7D0FD98
:1019A000801B3B4B9842F3D9032078E7354B5A68AC
:1019B0000C231340082B15D0FEF7C2FD801B344BBF
:1019C0009842F3D903206AE72E4B5A680C23134040
:1019D0000C2B07D0FEF7B4FD801B2D4B9842F3D99A
:1019E00003205CE7234B1A6801231340AB420BD959
:1019F00020490B68012293432B430B600B681A406C
:101A0000AA4201D001204AE723685B0719D5E368A1
:101A1000002B0FD08022D20093420BD00132FF3234
:101A2000934207D00132FF32934203D00132FF329A
:101A3000934217D1134A536816490B40E1680B4390
:101A40005360FFF7C1FE0F4B5A6812090F23134072
:101A5000114AD35CD840114B18600020FEF746FDB8
:101A600000201CE70E49054801F006F8E2E70120D6
:101A700015E7C04600200240DA0200007493000817
:101A8000DB02000000100240F3020000FA02000036
:101A900088130000FFF8FFFF549200080C0000209C
:101AA00063030000014B18687047C0460C0000201B
:101AB00010B5FFF7F7FF044B5A68120A07231340CB
:101AC000024AD35CD84010BD001002406492000866
:101AD00070B582B004007E4B02689A4200D9A4E03F
:101AE0002368DB0349D56368002B0CD080225200A9
:101AF000934208D00132FF32934204D00132FF32C8
:101B0000934200D096E0734BDB69DB0000D596E092
:101B1000704AD169802040050143D161D3690340F7
:101B20000193019B01256C4B1B68DB0500D488E009
:101B3000684B1B6AC0229200134014D061680A40AF
:101B40009A4210D0634B186A644A02401E6A802190
:101B5000490231431962196A614E314019621A62B1
:101B6000C30700D582E05B4A136A5C490B40616899
:101B70000B431362012D00D188E02368DB070AD5EF
:101B8000A368032B00D986E0524A136B03218B43D1
:101B9000A1680B43136323689B0716D5E368002BEA
:101BA0000CD080225202934208D0802292029342AB
:101BB00004D0C0229202934200D071E0454A136BD8
:101BC00048490B40E1680B43136323689B060BD520
:101BD0002369002B01D0102B67D13E4A136B1021D3
:101BE0008B4321690B43136323689B030BD5A369C4
:101BF000002B01D0802B5DD1364A136B80218B43A3
:101C0000A1690B43136323685B055ED56369002BF1
:101C100001D0402B53D12F4A136B40218B43616974
:101C20000B431363002002B070BD7E212E4800F0EC
:101C300023FF55E784212C4800F01EFF63E70025B1
:101C400071E7254A116880235B000B431360FEF7A0
:101C500077FC0600204B1B68DB0500D568E7FEF724
:101C60006FFC801B6428F5D90320DCE7FEF768FCD5
:101C70000600184B1B6A9B0700D574E7FEF760FC53
:101C8000801B1A4B9842F4D90320CCE7D36918493A
:101C90000B40D36171E7CB21134800F0EDFE73E7F1
:101CA000D721114800F0E8FE88E7EF210E4800F048
:101CB000E3FE92E7FA210C4800F0DEFE9CE70A21E1
:101CC000FF31094800F0D8FEA5E70020ABE7C04689
:101CD000230403000010024000700040FFFCFFFFDF
:101CE000FFFFFEFFFFFFFCFFA0930008881300002A
:101CF000FFFFFFEF10B5041E00D131E10368994AE0
:101D0000934207D0984A934204D0922149009748C1
:101D100000F0B2FE6368002B04D08222520093428E
:101D200000D0D4E0A368002B08D08022D2009342D8
:101D300004D080221202934200D0CEE0E368F02269
:101D40001201934230D0013AFF3A93422CD0013A2B
:101D5000FF3A934228D0013AFF3A934224D0013A05
:101D6000FF3A934220D0013AFF3A93421CD0013A05
:101D7000FF3A934218D0013AFF3A934214D0013A05
:101D8000FF3A934210D0013AFF3A93420CD0013A05
:101D9000FF3A934208D0013AFF3A934204D0013A05
:101DA000FF3A934200D09EE0A369802292009342C2
:101DB00006D0002B04D08022D202934200D098E0BB
:101DC000636B082B02D0002B00D098E0E369002B56
:101DD0000ED0082B0CD0102B0AD0182B08D0202B9B
:101DE00006D0282B04D0302B02D0382B00D08CE02A
:101DF000236A002B02D0802B00D08CE0636A002B7A
:101E000002D0102B00D08CE0636A002B09D123692B
:101E1000002B02D0022B00D089E06369012B00D98E
:101E20008BE00023A3625D33E35C002B00D18AE0EA
:101E30005D230222E2542268136840218B43136021
:101E4000E368E022D200934200D883E00022F02130
:101E500009018B4205D0E021C9008B4201D000214D
:101E6000A162216B002906D1E021C9008B4200D874
:101E700073E0022323636368A1680B4321690B436A
:101E800061690B4380218900A06901400B43E1692E
:101E90000B43216A0B432168A06A03430B60618BEB
:101EA00004230B40616A0B43616B0B43E1680B43F6
:101EB000216813434B602268D3692D490B40D361DD
:101EC000002323665D330122E254002010BD262149
:101ED000FF31264800F0D0FD24E793214900234834
:101EE00000F0CAFD2AE72821FF31204800F0C4FD98
:101EF0005AE7942149001D4800F0BEFD60E72A2101
:101F0000FF311A4800F0B8FD60E7952149001748F5
:101F100000F0B2FD6CE72C21FF31144800F0ACFD5D
:101F20006CE796214900114800F0A6FD6CE73021CE
:101F3000FF310E4800F0A0FD6FE7982149000B48E3
:101F400000F09AFD6DE75C330022E254200000F0BF
:101F50000BFE6DE78022520179E7012323638AE7B4
:101F60000120B3E70030014000380040D093000862
:101F7000FFF7FFFF70B50400B34B42689A4200D9E7
:101F800097E0A36880225205934206D0002B04D02C
:101F900080225201934200D090E0E36880225201F7
:101FA00093420AD0002B08D0C0229201934204D061
:101FB00080229201934200D085E02369002B08D053
:101FC0008022D200934204D0C022D200934200D09B
:101FD0007EE063690C221900914301D1002B03D1EB
:101FE0009A499B4800F048FDA369002B0BD0802242
:101FF0005200934207D00132FF32934203D00132A4
:10200000FF32934269D1236A002B03D08022120150
:10201000934267D1E369002B03D0802212029342DE
:1020200065D1A3682269134362691343E2691343CC
:1020300021680A688748024013430B60226853688E
:1020400085490B40E1680B435360A269236A1A4338
:1020500021688B688148034013438B602568804B5F
:102060009D4249D07F4B9D425AD07F4B9D4279D0B3
:102070007E4B9D4272D0102380221202E169914270
:1020800072D0022B00D1C3E000D8B1E0042B00D104
:10209000CAE0082B00D0D5E06168480880231B0205
:1020A0009C46604400F0D8FD0004000CE86000206D
:1020B00083E06F49664800F0DFFC62E76D496448E1
:1020C00000F0DAFC69E76C49614800F0D5FC74E780
:1020D0006A495F4800F0D0FC7BE769495C4800F042
:1020E000CBFC90E767495A4800F0C6FC92E7664986
:1020F000574800F0C1FC94E7644B1A6B032313406C
:10210000012B09D0002B05D0022B07D0032B27D0A1
:102110001023B1E70023AFE70423ADE70823ABE7C3
:102120005A4B1B6BC02292021340802252029342F0
:102130000ED009D98022920293420BD0C022920283
:10214000934209D1022397E7002B05D1002393E79F
:10215000042391E708238FE710238DE700238BE703
:10216000022389E7002387E7022B27D00FD9042B0E
:102170002FD0082B39D16368580880235B029C4616
:102180006044616800F068FD83B200200CE0002B21
:102190002BD1FFF78DFC400063685B08C0186168B5
:1021A00000F05AFD83B200200F22190091435B100A
:1021B000083A13400B432268D36070BD6368580827
:1021C000334B9C466044616800F046FD83B20020BA
:1021D000EAE7FFF7F9FA400063685B08C018616836
:1021E00000F03AFD83B20020DEE701200023DBE7A8
:1021F000002B27D1FFF75CFC63685B08C01861689F
:1022000000F02AFD23680004000CD8600020D4E709
:10221000616848081F4B9C46604400F01DFD0004A7
:10222000000CE8600020C8E7FFF7CEFA63685B089F
:10223000C018616800F010FD23680004000CD8602D
:102240000020BAE70120B8E7808D5B004A08000053
:10225000FC930008F369FFEFFFCFFFFFFFF4FFFFE0
:10226000003801400044004000480040004C00405D
:102270004608000047080000480800004908000020
:102280004B0800004C0800004D0800000010024000
:102290000024F40000127A0010B50400436AFF2BFA
:1022A00000D99CE0636ADB070ED5A36A002B04D03B
:1022B00080229202934200D096E0226853686C49D3
:1022C0000B40A16A0B435360636A9B070ED5E36A18
:1022D000002B04D080225202934200D089E0226871
:1022E000536864490B40E16A0B435360636A5B07C0
:1022F0000ED5236B002B04D08022D202934200D053
:102300007CE0226853685C490B40216B0B435360AF
:10231000636A1B070ED5636B002B04D08022120268
:10232000934200D06FE02268536854490B40616BC0
:102330000B435360636ADB060DD5A36B002B03D000
:1023400080225201934263D1226893684C490B402A
:10235000A16B0B439360636A9B060DD5E36B002B67
:1023600003D080229201934257D122689368454955
:102370000B40E16B0B439360636A5B061DD52368DA
:10238000414A934206D0414A934203D040494148D2
:1023900000F072FB236C002B03D080225203934287
:1023A00040D1226853683C490B40216C0B43536079
:1023B00080235B03226C9A4239D0636A1B060DD5D9
:1023C000A36C002B03D08022120393424BD12268CE
:1023D000536832490B40A16C0B43536010BD304928
:1023E0002C4800F049FB5DE72E492A4800F044FBE9
:1023F00063E72D49274800F03FFB70E72B4925484C
:1024000000F03AFB7DE72A49224800F035FB8AE7D5
:102410002849204800F030FB96E727491D4800F086
:102420002BFBA2E725491B4800F026FBB9E7636CAC
:10243000002B0BD080229203934207D08022D2033C
:10244000934203D0C022D203934207D1226853683B
:102450001B490B40616C0B435360AEE719490D48B3
:1024600000F00AFBF2E718490A4800F005FBAEE766
:10247000FFFFFDFFFFFFFEFFFFFFFBFFFF7FFFFFF3
:10248000FFEFFFFFFFDFFFFF003801400044004087
:10249000D8080000FC930008FFFFEFFFFFFFF7FFE5
:1024A000A9080000AE080000B5080000BC08000044
:1024B000C3080000CA080000D1080000D9080000C5
:1024C000FFFF9FFFDE080000E6080000F0B5C646EB
:1024D00000B506000C0017009846069D3368DB69BE
:1024E00023401B1B5A425341BB421ED16B1CF5D0EB
:1024F000002D05D0FEF724F84346C01AA842EDD9B6
:10250000326813680B490B40136032689368A3313B
:10251000FF318B43936020236922B3540132B354BB
:1025200048330022F254032000E0002004BC90460F
:10253000F0BDC0465FFEFFFF30B583B0040000234E
:10254000C366FDF7FDFF05002368194A93420DD0CD
:10255000184A93420AD020236922A3540132A3547B
:1025600048330022E254002003B030BD1B681B0733
:1025700010D423681B685B07EDD580210E4B0093B8
:102580002B000022C9032000FFF7A0FF0028E2D0A3
:102590000320E9E78021084B00932B0000228903E8
:1025A0002000FFF793FF0028E3D00320DCE7C046BC
:1025B0000038014000440040FFFFFF0110B5041E39
:1025C00059D08369002B38D003682C4A93420DD030
:1025D0002B4A93420AD02B4A934207D02A4A93426D
:1025E00004D097214900294800F046FA6923E35CAA
:1025F000002B35D069232422E2542268136801217C
:102600008B4313602000FFF7B5FC012814D0636AE8
:10261000002B2CD1226853681D490B40536022685F
:1026200093682A218B4393602268136829390B43EE
:1026300013602000FFF780FF10BD03680F4A93422C
:10264000D4D00F4A9342D1D00E4A9342CED00E4AF4
:102650009342CBD03421FF310C4800F00DFAC5E78E
:1026600068330022E254200000F0A4FAC2E7200000
:10267000FFF712FECEE70120DEE7C046003801403A
:102680000044004000480040004C0040FC9300081B
:10269000FFB7FFFFF0B58BB0384B596980200003BE
:1026A000014359615A6902400192019A5969802097
:1026B000C003014359615A6902400292029A596962
:1026C00080208002014359615A6902400392039AB3
:1026D0005A698021C9020A435A615B690B4004931D
:1026E000049B8024A401002221002548FEF78AFBD8
:1026F0009027FF0500221E213800FEF783FBCA2623
:10270000B601002231001F48FEF77CFB059401252D
:10271000069500240794089405A91948FEF71EFAA7
:102720000223FF3305930694079405A93800FEF7AA
:1027300015FA1E23059306950794089405A93800F9
:10274000FEF70CFA302305930F4B0693079405A967
:102750000B48FEF703FA059606950794089405A919
:102760000848FEF7FBF9094B05930694079405A961
:102770000448FEF7F3F90BB0F0BDC046001002406C
:1027800000080048000400480000111078C1000053
:10279000FEE7000000B585B02A482B4B03600023FC
:1027A00043608360C360012202610421416183614F
:1027B000C36103624362C221FF318162C36203636A
:1027C0004263FDF7D5FE002827D10A230193802319
:1027D0005B01029380235B05039301A91948FEF76F
:1027E00049F800281DD10B23019301A91548FEF7D4
:1027F00041F8002819D10C23019301A91148FEF7D3
:1028000039F8002815D10D23019301A90D48FEF7D1
:1028100031F8002811D105B000BDDD210B48FFF7CC
:10282000B7FFE7210948FFF7B3FFEF210748FFF79C
:10283000AFFFF7210548FFF7ABFFFF210348FFF784
:10284000A7FFC046180C0020002401402C9400086B
:1028500010B51748174B0360174B43600023836084
:102860000122C260036143618361C3610362FEF7B9
:10287000F5FA00280CD100210D48FEF7BFFB002817
:102880000BD100210A48FEF703FC00280AD110BD35
:102890001421FF310948FFF77BFF8D2149000748CC
:1028A000FFF776FF2221FF310448FFF771FFC04692
:1028B000F80A0020005800405D3E30202C940008AB
:1028C00010B51248124B036082235B004360002363
:1028D0008360C0229200C26003614361013AFF3A03
:1028E0008261F93AFF3AC26103624362836207215F
:1028F000C16203634263FFF7FDF9002800D110BDF8
:102900003C21FF310348FFF743FFC046B40B0020D2
:10291000003001402C94000810B50D480D4B0360A9
:1029200096239B01436000238360C36003610C22F4
:1029300042618361C36103624362FFF73FFE002887
:1029400000D110BDA82149000348FFF721FFC04670
:10295000440B0020003801402C94000810B50D48AD
:102960000D4B036096239B01436000238360C3608B
:1029700003610C2242618361C36103624362FFF71A
:102980001DFE002800D110BD6621FF310348FFF76E
:10299000FFFEC046880A0020004800402C94000832
:1029A00000B599B011230B93103B0C9310930F3388
:1029B00011930E3B149380235B0215938023DB025B
:1029C0001693002317930BA8FEF7A6FB002828D127
:1029D00007230793053B0893002309930A930121DA
:1029E00007A8FEF741FF00281FD101230093002311
:1029F00002936846FFF76CF800281AD1FFF752F8E7
:102A0000FA21890000F028F9FEF768F80420FEF7A3
:102A100081F80120002200214042FEF723F819B07E
:102A200000BDA2210548FFF7B3FEAF210348FFF721
:102A3000AFFEB6210148FFF7ABFEC0462C9400085C
:102A400010B5FDF765FDFFF7ABFFFFF723FEFFF7BE
:102A5000A1FEFFF7FDFEFFF733FFFFF75DFFFFF776
:102A60007DFF90201021C005FEF7E8F90148FDF731
:102A70006DFDF6E7EE0200007047000000B583B080
:102A8000124B996901221143996199690A40009298
:102A9000009ADA69802149050A43DA61DB690B4053
:102AA0000193019B0520002200214042FDF7DAFF3F
:102AB0000220002200214042FDF7D4FF0120002225
:102AC00000214042FDF7CEFF03B000BD00100240E0
:102AD00000B587B002680D4B9A4201D007B000BD27
:102AE0000B4A916980208000014391619369034002
:102AF0000093009B0F2301930C3B0293002303934D
:102B000001A90448FEF72AF8E8E7C046002401407E
:102B1000001002400008004800B587B002680F4B63
:102B20009A4201D007B000BDC0231B0101931223BC
:102B30000293113B039303220492059301A90848D1
:102B4000FEF70CF8074AD1698020C0030143D16128
:102B5000D36903400093009BE4E7C046005800405F
:102B6000000400480010024000B587B002680F4B17
:102B70009A4201D007B000BD0D4A91698020400102
:102B800001439161936903400093009BE02301930B
:102B9000DE3B0293002303930322049205939020CB
:102BA00001A9C005FDF7DAFFE4E7C04600300140A7
:102BB0000010024000B589B003681E4A934204D059
:102BC0001D4A93421CD009B000BD1C4A9169802067
:102BD000C00101439161936903400193019BC023AC
:102BE000DB0003930223049300230593033306932E
:102BF000023B0793902003A9C005FDF7AFFFE2E772
:102C00000E4AD1698020C0020143D161D3690340DB
:102C10000293029BC0231B0103930223049300230E
:102C2000059303330693023B079303A90448FDF77A
:102C300095FFC8E7003801400048004000100240FE
:102C4000000800487047FEE77047704710B5FDF771
:102C50006FFCFDF77EFF10BD002243088B4274D34A
:102C600003098B425FD3030A8B4244D3030B8B428D
:102C700028D3030C8B420DD3FF22090212BA030C96
:102C80008B4202D31212090265D0030B8B4219D377
:102C900000E0090AC30B8B4201D3CB03C01A524197
:102CA000830B8B4201D38B03C01A5241430B8B42DF
:102CB00001D34B03C01A5241030B8B4201D30B03C8
:102CC000C01A5241C30A8B4201D3CB02C01A5241EF
:102CD000830A8B4201D38B02C01A5241430A8B42B2
:102CE00001D34B02C01A5241030A8B4201D30B029B
:102CF000C01A5241CDD2C3098B4201D3CB01C01AB5
:102D0000524183098B4201D38B01C01A52414309BE
:102D10008B4201D34B01C01A524103098B4201D3AC
:102D20000B01C01A5241C3088B4201D3CB00C01A19
:102D3000524183088B4201D38B00C01A5241430891
:102D40008B4201D34B00C01A5241411A00D20146B6
:102D5000524110467047FFE701B5002000F006F829
:102D600002BDC0460029F7D076E770477047C046DD
:102D7000014B18687047C0461000002010B50400D1
:102D800083070AD00378002B23D0032202E00378C4
:102D9000002B1CD001301042F9D102680E4B0F49B4
:102DA000D31893430B420FD1043002680A4BD31857
:102DB00093430B4208D104300268074BD318934366
:102DC0000B42F1D000E001300378002BFBD1001B57
:102DD00010BD0020FCE7C046FFFEFEFE8080808024
:102DE00030B504009BB01800002A2DDB82236D460D
:102DF0009B00AB8100910491002A13D00123013A7A
:102E00005B4202920592EB8102001E9B6946200004
:102E100000F030F8431C01DA8B2323600023009A72
:102E200013700CE001235B4202920592EB810200D9
:102E30001E9B6946200000F01DF8431C01DB1BB0FF
:102E400030BD8B232360FAE78B23012023604042AF
:102E5000F5E7C04610B50400054882B0006800934D
:102E600013000A002100FFF7BBFF02B010BDC046EF
:102E700010000020F0B5DE4657464E464546E0B508
:102E8000D7B00C00099192461093089002F032FFDF
:102E9000036818001E93FFF771FF1C90A3891B069F
:102EA00005D523690793002B01D100F070FF2DABEE
:102EB0002A93D34600232AAFBB607B6015931A93F5
:102EC0001993149320931D9321931F930B935B46A7
:102ED0001B782DAE002B00D169E35C46252B02D177
:102EE0001CE0252B03D001342378002BF9D15B465D
:102EF000E51A0FD03360BB6875605B19BB607B68F7
:102F000001337B60072B21DC08360B9B9C46AC44CD
:102F100063460B932378002B00D148E3631C9A4649
:102F200000231CAAD37601225242914600226378E4
:102F30004D4654460C9207921A00203A01345A2A00
:102F400000D9D1E0CA4992008A5897463A000999B7
:102F5000089803F0F9FD002811D12DAED5E73A000D
:102F60000999089803F0F0FD002801D101F047F914
:102F7000119B002B03D01900089802F0D1FD099B8A
:102F80009B895B0601D501F0A4FB0B9857B03CBCB4
:102F900090469946A246AB46F0BD2023079A1A43B5
:102FA00007922378C8E7089B1800994602F0A2FE12
:102FB000436818001F93FFF7E1FE804621904846C2
:102FC00002F098FE434682681D92002B01D000F06B
:102FD00027FE2378B0E71393A64BA2461493079BD2
:102FE000A9469B0600D419E10722109B073393439F
:102FF000013294469C4462465C681B680E930F94B1
:1030000010920799CB0706D50E9A0F9B1000184314
:1030100001D000F0E9FD984B079A1A4013000222F4
:1030200000211CA8C176494656AC013100D0C0E051
:103030000793012A00D189E0022A00D1E0E30E982B
:103040000F99072356AA9C460A969046A34600E08D
:10305000A8464346C2085D1E4C076346144322003F
:103060000340CE0830332B70200031003243EFD1C3
:103070000E900F9107995C460A9E4246AB46C907DF
:1030800000D4D9E3302B00D1D6E33023023A934663
:103090001370A31A0D934A460A920D9A1CABDB7E5D
:1030A000914500DA0A920022119218921792169214
:1030B000002B00D171E10A9A01320A926DE1303B96
:1030C00000201A0083001B185B00D0182378611CB5
:1030D0001A00303A0C00092AF4D90C900C001A009E
:1030E000203A5A2A00D82DE7A2461393002B00D18C
:1030F0005DE23DAA137000231CA9CB76013340E1A9
:103100001393079BA246A9469A0600D4B8E2072269
:10311000109907319143013294468C4462461092D3
:103120004A6809680F920E91002A09DA0E9C0F9DD9
:1031300000226142AA410E910F922D221CA9CA764B
:10314000494656AC0122013133D107930E9A0F9BA9
:10315000002B01D000F066FE092A01D900F062FEC2
:1031600063220E9B3DA930338B5401231CAA944645
:103170000D93E63363449B468DE71393079BA2466A
:10318000A9469A0666D50721109A07328A4301316B
:103190008C46944461461091116852680E910F92CA
:1031A000012200211CA8C176494656AC013100D14C
:1031B0003EE780211800884307900E980F9905007C
:1031C0000D4300D035E74946002901D000F021FF2A
:1031D000002A01D000F09AFC01321A4013000D922F
:1031E00056AA9346002B00D155E7632330213DAA10
:1031F000D1541CAA9446843363449B464BE78023F6
:10320000079A1A430792237896E613931B4BA2461C
:103210001493079BA9469B0600D5E5E6109A0799EB
:10322000131DC90601D500F0C1FC079A520601D44E
:1032300000F0B7FC109A109312880E9200220F92A1
:10324000DFE613931023079AA2461A431300A946F8
:103250009A0698D410990A1DD80601D400F0D3FC20
:1032600009680E91002110920F91012299E7C04642
:103270003C940008B8950008FFFBFFFFCC950008C0
:103280001393109BA2461C1D1B681CAA9B4600237F
:10329000D3765B46002B01D100F0B1FD2B0001334A
:1032A00001D100F0F8FE2A000021584602F0D8FFB4
:1032B0001190002801D101F068F95A46119B991A22
:1032C000CA43D2170D91114000221CABDB7E0A913C
:1032D000109411929146189217921692E8E6139361
:1032E0001023079AA2461A430792079BA9469B06FA
:1032F00000D413E20722109B073393430132944614
:103300009C4462465C681B680E930F941092D24BEB
:10331000079A1A401300002243E70823079A1A432A
:103320000792237808E62378601C2A2B01D101F04C
:1033300020FB1A00303A00250100092A00D9CDE609
:103340002C00A5002D1903786D00AC181A00411C43
:10335000303A0800092AF4D925000C00BFE623788A
:103360000422079911430791E6E5109913930B681E
:103370003DAA137000231CA8C3760B1D1093A24610
:1033800001230021119101310D9100210A938946F9
:103390000023934618911791169102220799114024
:1033A000884602D00A9A02320A9284220799BC689F
:1033B0001140129138D10C9A0A99551A002D33DD1B
:1033C0007B68102D01DC00F016FFA44922001B9140
:1033D0000C0003E0103D0836102D16DD10211032D0
:1033E000013334607160BA607B60072BF2DD3A0014
:1033F0000999089803F0A8FB002800D0B8E5103D13
:10340000BA687B682DAE102DE8DC14001B9A641995
:10341000013332607560BC607B60072B01DD00F01A
:1034200051FD1CABDB7E0836002B0FD01CAA1B23E2
:10343000944663443360012373607B680134013335
:10344000BC607B60072B00DDECE208364346002BB6
:103450000CD023AB3360022373607B6802340133EA
:10346000BC607B60072B00DDE8E20836129B802BF6
:1034700000D147E24B460D9A9B1A9846002B31DD4E
:1034800042467B68764D102A21DD102291462200AB
:10349000444603E0103C0836102C16DD4946103235
:1034A000013335607160BA607B60072BF2DD3A0052
:1034B0000999089803F048FB002800D058E5103C13
:1034C000BA687B682DAE102CE8DCA046140042469A
:1034D0004444013335607260BC607B60072B00DDC3
:1034E000B8E20836079BDB0500D5A9E15B463360EF
:1034F0000D9B9C4673607B6864440133BC607B60B9
:10350000072B00DD70E10836079B5B0732D50C9B6B
:103510000A9A9D1A002D2DDD504A7B681B92102DB2
:103520001FDD10219146884603E0103D0836102D1E
:1035300017DD4A4632604246103401337260BC6087
:103540007B60072BF1DD3A000999089803F0FCFA3B
:10355000002800D00CE5103DBC687B682DAE102D16
:10356000E7DC1B9A6419013324C6BC607B60072B1F
:1035700000DD0BE30C9B0A9A934200DA13000B9ACE
:1035800094469C4463460B93002C00D0F3E1002347
:103590007B60119B002B03D01199089802F0C0FAB0
:1035A000D3462DAE5B461B78002B00D095E4BB685C
:1035B000002B00D1E3E43A000999089803F0C4FA1B
:1035C000DDE407221393109BA24607339343013295
:1035D00094469C44624610921A685B6890461A9220
:1035E00001225C006408199352421E4B40462100A0
:1035F000A94605F0E7FC002800D022E30122194B80
:1036000052424046210003F0FDFE002800D018E39E
:10361000002200234046199903F0EAFE002801D059
:1036200000F08EFF1CABDB7E139A472A01DD00F011
:10363000D8FD0D4A93468022079991437D3A0A921C
:1036400000220791119203320D92002291461892A6
:10365000179216922CE5C046FFFBFFFFEC95000881
:10366000FC950008FFFFEF7FA89500081393102337
:10367000079AA2461A431300A9469A0600D546E5C2
:10368000109A111DD80600D5A7E25A0600D4A0E270
:10369000109A10910020125E0E92D2170F9243E5FD
:1036A0002B231CAAD376237846E4109A237811683A
:1036B00004320C911092002900DB3DE44A420C9246
:1036C0004EE60123079A1A430792237834E41CAA92
:1036D000D27E2378002A00D02EE420321CA9CA769C
:1036E0002AE41098079A0368E0490E9300230F9389
:1036F00002331A43130023AA11807821021D10926D
:10370000DB4AA2461492A9460222139149E513937B
:10371000079BA246A9469B0600D5EBE5109A0799A0
:10372000131DC90600D54DE2079A520600D444E2A3
:10373000109A109312880E9200220F92E7E5109AC9
:10374000A24608CA1092079A920600D562E2079A2A
:10375000D20601D500F09AFC079A520601D500F076
:1037600059FD079A920501D400F090FC0B9AD346BC
:103770001A7017E723786C2B00D132E310220799D7
:1037800011430791FFF7D8FB2378682B00D11FE383
:103790004022079911430791FFF7CEFB01330D93A8
:1037A0001300129491460C0008334A461560129A91
:1037B000494694464A600D9A6444BC607A60072A80
:1037C00000DDF4E21E00994601320D9208364A46A9
:1037D00026AB1360209B9C4653600D9B6444BC60E9
:1037E0007B60072B00DC8FE63A000999089803F00C
:1037F000ABF9002801D0FFF7BBFBBC682DAE83E618
:1038000056AB9B460E9A0F9B0F20B446A0465946D6
:103810000500149C1540655D16091C0701393443E9
:103820000D701D092B00250022001D43F0D16646B6
:1038300044468B460E920F935B46E31A0D932AE49F
:10384000139B652B00DCA0E0002200231A98199935
:1038500003F0C8FD002800D110E1864B013433602D
:10386000012373607B68BC6001337B60072B01DD43
:1038700000F000FC0836249B159A934204DB079B5A
:10388000DB0701D4BC683FE61E9BBA6833601C9B13
:103890009C4673607B68624401331400BA607B60AD
:1038A000072B00DD9FE20836159B013B9846002B55
:1038B00000DC29E642467B686F4D102A00DCBFE33E
:1038C000102291462A004546904604E00836103DF5
:1038D000102D00DCB1E3424632604A461034013319
:1038E0007260BC607B60072BF0DD3A000999089894
:1038F00003F02AF9002801D0FFF73AFBBC687B6887
:103900002DAEE4E70C9B0A9A9B1A9846002B00DC2C
:10391000B0E542467B68584D102A20DD220044461F
:1039200003E0103C0836102C17DD10211032013353
:1039300035607160BA607B60072BF2DD3A0009994F
:10394000089803F001F9002801D0FFF711FB103CA3
:10395000BA687B682DAE102CE7DCA0461400424606
:103960004444013335607260BC607B60072B00DD2E
:1039700073E308367EE53A000999089803F0E4F805
:10398000002800D103E6FFF7F3FA082189467A6898
:1039900015990134531CB144012900DCE5E05A4675
:1039A00032600122BC6072607B60072B00DD13E394
:1039B0004A461E99013311601C9A49469446644454
:1039C0004A60BC6098467B60072B00DD12E3082349
:1039D0009C46E14443464E465D1C159B0022013B3C
:1039E00012931A980023199913950D95083603F030
:1039F000F9FC002800D08FE05A46013213004A46F5
:103A00001360129B7D609C4664445360BC60072D2C
:103A100000DDCCE1434602330D934B461033B146F3
:103A20001E00D4E63A000999089803F08DF80028A2
:103A300001D0FFF79DFABC682DAE07E53A00099961
:103A4000089803F081F8002801D0FFF791FABC68CC
:103A50002DAE0BE53A000999089803F075F8002897
:103A600001D0FFF785FABC682DAE3BE53078000049
:103A7000B8950008E8950008FC95000824990029ED
:103A800000DC4CE1169B1D00159B9D4200DD1D00D6
:103A9000002D0CDD5B4633607B6864190133756073
:103AA000BC607B60072B01DD00F03DFD0836EB4379
:103AB000DB171D40169B5B1B9846002B00DC27E2A2
:103AC00042467B68DF4D102A00DC0CE21022914652
:103AD0002200444604E00836103C102C00DC00E2D2
:103AE00049461032013335607160BA607B60072B44
:103AF000F1DD3A000999089803F026F8002801D072
:103B0000FFF736FABA687B682DAEE5E700230D9320
:103B100056AB9B46FFF7BFFA129B002B00DC56E624
:103B2000102B01DC00F008FF2100C64D1C00102600
:103B30004A46139B05E00832103C102C00DC2DE6B1
:103B40000133103115605660B9607B60072BF2DDE0
:103B50003A000999089802F0F7FF002801D0FFF712
:103B600007FAB9687B682DAAE6E7012107980142A8
:103B700000D014E7584671603060BC607B60072B52
:103B800000DD14E1931C0D93103620E63A000999EC
:103B9000089802F0D9FF002801D0FFF7E9F9BC68C6
:103BA000E8E4079A920500D544E3109A126810934E
:103BB0000E9200220F92FFF724FA079A920500D581
:103BC00030E3109A126810930E9200220F92FFF7C2
:103BD0009EFB9A0500D535E3109A126810910E925B
:103BE000D2170F92FFF7A0FA302223AB1A70139A64
:103BF0005A70022319430791934B079A1A401300F6
:103C00000222FFF70DFA590600D4EEE21099098856
:103C1000FFF727FB0B9AD3461A60D2175A60C1E40C
:103C20002378002A01D1FFF787F91278002A01D101
:103C3000FFF782F980220799D20011430791FFF71D
:103C40007BF91A9D199C2A0023002800210005F009
:103C5000B9F9002801D000F02DFE139B612B01D192
:103C600000F080FC412B00D1FBE22023139A07993E
:103C70009A43E03319434B4617921691199D01332D
:103C800001D100F0B6FD472A01D100F0ABFD002DB7
:103C900001DA00F05AFC1A9B984600231B931193FB
:103CA000139C662C01D100F072FD462C01D100F06E
:103CB0000DFE179B0898453B5A4253411A0028AB0A
:103CC000049325AB039324AB029302234A440A9244
:103CD0000192009342462B0000F02CFF8346672C94
:103CE00000D0D2E3079BDB0700D4D6E30A9B5B44FA
:103CF0001C00002300224046290003F073FB230030
:103D0000002800D05AE3289B3021A34200D355E37A
:103D10005A1C28921970289B9C42F9D84EE34B4BB1
:103D200001343360012373607B68BC6001337B60C6
:103D3000072B01DD00F01BFC0836002903D1159B81
:103D4000002B00D187E21E9B33601C9B9C46736056
:103D50007B6864440133BC607B60072B01DD00F0AD
:103D600033FC32000832002901DA00F086FC5946A3
:103D70001160159901338C4664445160BC607B60CE
:103D8000072B00DD30E508321600FFF7BDFB4021B0
:103D9000089801F0BBFF099B18601861002801D149
:103DA00000F006FE4023099A5361FFF780F83A00BD
:103DB0000999089802F0C8FE002801D0FFF7D8F84A
:103DC0007B68BC6801330D932DAB2FAE9946FEE4A2
:103DD0009933FF33079A01341A4307922378FFF788
:103DE000ABF84C3BF6E73A000999089802F0ACFEB4
:103DF000002801D0FFF7BCF8BC682DAE54E50A9549
:103E0000062D00D903E20022002391461193189257
:103E10000A9B179216920E4A0D9310940023934614
:103E2000FFF7BBFA802551460022079BED001D409D
:103E300056AB0A96AA46A3460E9C0F9D0D911E00F6
:103E4000904613E0FC950008FFFBFFFFE895000893
:103E5000E09500080023200029000A2203F0F0FA70
:103E6000030004000D000B4300D1D8E00A22002318
:103E70002000290003F0E4FA01239C465346013E4A
:103E800030323270E044002BE4D01D9B1B78984503
:103E9000E0D14346FF2BDDD0002D01D1092CD9D92B
:103EA000219B1F99F61A1A00300002F007FE00222B
:103EB0001D9990464B788C465A1E93419C4463460C
:103EC0001D93C7E73A000999089802F03DFE0028C3
:103ED00001D0FFF74DF81CABDB7EBC682DAEFFF7C1
:103EE000A3FAA04614004246444401333560726090
:103EF000BC607B60072B00DC87E13A0009990898D9
:103F000002F022FE002801D0FFF732F8BC682DAE87
:103F1000169B5B440D93079B5B0500D5C1E0249B7A
:103F2000159A934249DB079AD20746D415990D9802
:103F30000A00CB1A5A44121A1D00934200DD1500E4
:103F4000002D0BDD0D9A641932607A6875600132BC
:103F5000BC607A60072A00DD6CE30836EA43D217BA
:103F600015405B1B9846002B01DCFFF7CDFA42465B
:103F70007B68E04D102A63DD102291462A004546F9
:103F8000904603E00836103D102D56DD4246326063
:103F90004A46103401337260BC607B60072BF1DD50
:103FA0003A000999089802F0CFFD002801D0FEF7E9
:103FB000DFFFBC687B682DAEE5E71E9A32601C9A75
:103FC000944672607A6864440132BC607A60072A61
:103FD00000DD08E30836A9E73A000999089802F0DD
:103FE000B3FD002801D0FEF7C3FF2DAABC687B6893
:103FF0009146DDE43A000999089802F0A5FD0028F1
:1040000001D0FEF7B5FF7B68BC6898462DAB99469A
:10401000E0E4012A01D0FFF70FF8FFF7A1F80D9BAC
:104020000E940F959A465C464346B34615935B46FD
:10403000E31A0A9E0D93FFF72EF84246A846150094
:1040400042464444013335607260BC607B60072B9C
:1040500001DCFFF758FAFFF7C7FB3A000999089807
:1040600002F072FD002801D0FEF782FFBC682DAE81
:10407000FFF700FA3A000999089802F065FD002858
:1040800001D0FEF775FF2DAEFFF7F5FB0B9AD34677
:104090001A60FFF787FA5846FEF770FE0100FFF737
:1040A0000FF952465946159B13921691189A219969
:1040B0005B44129392468F4B1D9A8B4617999846F4
:1040C0009146330022000D9E002967D051460029F9
:1040D00068D1012149428C461799E1446144179106
:1040E0001F995A441960594659607968BA6001317C
:1040F000796007295BDC08331299881B49460978E7
:104100000D00814200DD0500002D0BDD796852199C
:1041100001311E605D60BA607960072953DC494651
:1041200009780833E843C01705404D1B002D31DDE9
:104130007968102D00DC76E3404610240D9003E0F2
:10414000103D0833102D17DD404610320131186044
:104150005C60BA6079600729F2DD3A000999089835
:1041600002F0F2FC002801D0FEF702FF103DBA6811
:1041700079682DAB102DE7DC0D98521901311860CC
:104180005D60BA607960072901DDFEF7E8FE494607
:104190000978083376181799002997D151460029D4
:1041A00000D17CE1012149428C46E24498E73A0083
:1041B0000999089802F0C8FC002801D0FEF7D8FE43
:1041C000BA682DAB98E73A000999089802F0BCFC50
:1041D000002801D0FEF7CCFE4B46BA6819782DAB0B
:1041E000A0E7454A9346FFF726FA990517D5109997
:1041F0000978FFF736F8414A1B92FFF707F94B465B
:104200001978BA682DAB7618C5E7083680E606231C
:104210000A93F8E50B9AD3461A80FFF7C3F9109971
:10422000FFF71EF8109A109312780E9200220F9248
:10423000FFF76DF8109A109312780E9200220F92E9
:10424000FEF7DFFE109A1091127852B20E92D2173A
:104250000F92FEF769FF079BDB0701D4FFF754F9C4
:1042600071E5302223AB1A7028325A7002244B4673
:10427000079A1443632B00DD47E220231399199D0D
:104280009943E2331A43002311933DAB9B461791A8
:1042900016920794002D00DA59E11A9B199D984651
:1042A00000231B93139B612B00D117E2412B00D0FD
:1042B000F6E424AA2900404602F0BCFBFF230022BA
:1042C0009B0504F0C5F80022002304000D0003F054
:1042D00089F8002800D0A9E2094B0D9301235B4225
:1042E0004B44524698461596CA461892D9464646B9
:1042F00011E0C046FC950008AC950008EC9500085C
:10430000CC95000800220023013E03F06BF8002842
:1043100021D10A9B99460022DC4B2000290004F0A1
:1043200097F80D00040004F069FE804604F09CFE3E
:1043300002000B002000290004F0FCFA4B46424624
:1043400001330A930D9B04009B5C4A460D001370D9
:104350001296731CD6D14B46159E1593189BD146C9
:104360009A464346002218932000C94B290003F0C7
:1043700053F8002800D00FE10022C54B200029008F
:1043800003F030F8002803D0189BDB0700D503E1C9
:10439000129B002B11DB12990A9A8C4630211300D4
:1043A00062440132197001339A42FBD10A9A129B7E
:1043B000944601339C4463460A930A9B5A469B1ACF
:1043C0001593079B9846169B0793249B1693179B60
:1043D000472B75D0179B462B00D111E1169B4C2221
:1043E0005C1E6B469B18179A24941B780021412A67
:1043F00002D10F33DBB2013128201CAA121813702E
:10440000002C00DA7DE229202B231CAA121813703D
:10441000092C00DD0FE21CAB2A229C4662440029D5
:1044200006D1624630232A31521813702B2262447F
:104430003034531C147026AA9B1A159A9C461100FE
:10444000614420930D91012A00DC79E21C9A0D9BB6
:10445000944663440D9342468E4B1A4013008022CB
:1044600052001A4307920D9AD343DB171A400023D8
:104470000A921893179316931B9B002B2DD10022A1
:104480001CABDB7E9146FEF713FE139B472B00D03F
:104490002CE4079BDB0700D52AE2289B8EE71399C3
:1044A0000D968A4631001E004B461D93169B140044
:1044B0009B46159B5B44994200D830E50D932EE551
:1044C000169BDA1C01DB4B450EDD139B023B1A00E9
:1044D000139320239A43179280E72D231CAAD376A7
:1044E00000229146FEF7E7FD169B15998B4200DAF4
:1044F000AFE042460D93D20703D51C9A944663441D
:104500000D9343465B0503D5169B002B00DD10E1A0
:104510000D9AD343DB171A4067230A9213930023A3
:1045200018931793A8E73A000999089802F00CFB32
:10453000002801D0FEF71CFDBC682DAEFFF7B7FACE
:104540002D231CAAD376FFF76FF800231193802246
:10455000120694461A9B9846199B63441D002D230E
:104560001B939FE6302223AB1A7048327DE63A0057
:104570000999089802F0E8FA002801D0FEF7F8FC43
:104580002499BC682DAEFFF7D8FB1CABDB7E2A005C
:104590000A951094FFF758F8159B0D9928930A9BDC
:1045A000C97B013B1A78914207D130201870289BB3
:1045B000013B28931A789142F8D0392A00D175E14D
:1045C0000132D2B21A70F8E63A000999089802F05E
:1045D000BBFA002801D0FEF7CBFC2499BC687B68AD
:1045E0002DAAFFF7C0FB3A000999089802F0ACFA2F
:1045F000002801D0FEF7BCFC249BBC682DAE95E4DE
:10460000169B002B00DC8AE14B46002B00D001E119
:104610004346DB0700D5FDE0169B0D9366231393FD
:1046200043465B0500D586E00D9AD343DB171A405D
:104630000A9274E73A000999089802F085FA00286E
:1046400001D0FEF795FC159B249ABC689B1A2DAEF1
:1046500084E41C9A159B944663440D93672313933B
:10466000169B002BDCDC0D9B169A9B1A5A1CD3431D
:10467000DB170D921A400A9251E74E42064D103157
:1046800000DBBBE0102188460DE0C0460000304052
:104690000000E03FFFFBFFFFFC9500080832103EE2
:1046A000102E00DCAAE04146103401331560516041
:1046B000BC607B60072BF1DD3A000999089802F095
:1046C00043FA002801D0FEF753FCBC687B682DAA92
:1046D000E5E701235B420B93FEF757FC24AA290070
:1046E000404602F0A7F9FF2300229B0503F0B0FE2D
:1046F0000022002304000D0002F074FE002801D007
:1047000001232493B14B0D93E8E5591C089801F05F
:10471000FDFA8346002800D151E12023139A199D08
:104720009A431792079AE2331A431692119007940C
:10473000B0E56723139300221D9B189217921B78F4
:10474000169AFF2B0ED093420CDA1D98D21A41789C
:10475000002918D0179B0130013317931D900B00CF
:10476000FF2BF0D11692189A179B9446219A634416
:1047700053430D9A94469C446246D343DB170D92F3
:104780001A400A9278E6189901311891D9E728ABB6
:10479000049325AB039324AB02934B46019303236D
:1047A0004246009308982B0000F0C4F94B460400E1
:1047B00083464C440A935B461B78302B03D0249BE2
:1047C000E418FFF796FA002200234046290002F081
:1047D00009FE0028F3D101230A9A9B1A2493E418B6
:1047E000FFF787FA4B46002B00D193E0002311938B
:1047F00050E500231193063399464BE5A419013384
:1048000015605660BC607B60072B00DDBDE00832A0
:10481000FFF7ADFA1C9A169B944663444B440D93E4
:1048200066231393FCE66A480D90A5E401232493C4
:10483000684B0D9352E51CAA372394466344B14656
:104840001E0000E02E0020000A2102F0B7FD751EB8
:104850003031297020000A2102F0CAFC0400092826
:10486000F0DC1CA92B00372235008C4630344E4634
:10487000E4B299466244AB1E1C709A4200D892E0A2
:10488000372363445A1B01235B4201E0EC5C013394
:1048900026A9C918CC709A42F8D11CA98C462A22A4
:1048A0004B4662449446FB1A6344C4E50D9A927ADF
:1048B0001A7082E5199B002B4BDB1CABDB7E139A35
:1048C000472A42DC444A9346FEF7B5FE28AB0493E0
:1048D00025AB039324AB02934B460193032342463B
:1048E000009308982B0000F025F94B4683460A9365
:1048F0000A9B5B441C00139B462B00D15BE7FFF730
:10490000F8F90124169B1CAAE41A2D230130121871
:1049100013707DE50023119301339946BAE44B46A9
:10492000002B1AD14346DB0717D401230A936533C2
:104930001393653B0D93F2E53300254DFEF735FFEC
:104940004346DB0700D486E580E5244A9346FEF71C
:1049500072FE2D231CAAD376B1E71C9B01331A00EB
:104960004A44D343DB170D921A4066230A921393ED
:10497000D5E5109B1D681A1D002D01DA01256D4239
:10498000637810920400FEF7D7FA3A000999089864
:1049900002F0DAF8002801D0FEF7EAFABC687B687A
:1049A0002DAAFFF7E4F91CAA2A239446634442E5A2
:1049B0000C23089A13600D3B0B93FEF7E6FA402395
:1049C00009998A8913438B81FEF7D9FAB8950008B3
:1049D000FC950008CC950008B0950008B495000837
:1049E000F0B5454680465746DE464E464346E0B55E
:1049F0001B690D6985B00F000020AB4200DA92E020
:104A000014239C468C446246013DAB000292D618AA
:104A1000142242449146994433680192591C4B46F2
:104A20001868FEF719F9041E46D0029A0023924630
:104A3000002001994A46A446B1465446BB46AA46C0
:104A400006000D001F000392634604CC1004000C06
:104A50005843120C5A43C019030CD2182B68000497
:104A60001904090C8919170C000C1204091A120CEC
:104A70001B0C9B1A0A149B1809041E14090C1B0416
:104A8000194302C5A145DFD2039B4E4699461B68D8
:104A9000644655465F46002B0ED14B46019A043BB7
:104AA0009A4204D306E0043B013D9A4202D21968BF
:104AB0000029F8D043461D613900404601F0B0FEA0
:104AC00000282FDB029B01340020A4461900019F1F
:104AD0003B6810C91A04120C10182204120C821A16
:104AE0001B0C200C1B1A10141B1812041814120C87
:104AF0001B04134308C78E42EAD2019A64469446C7
:104B0000AB006344196800290CD1043B9A4204D3DA
:104B100006E0043B013D9A4202D219680029F8D010
:104B200043461D61200005B03CBC90469946A24614
:104B3000AB46F0BDF0B557464E46DE464546E0B5BD
:104B400016001F00016C9DB0040002960397002917
:104B500008D00123426C93404A608B6001F03CFC1A
:104B6000002323643D1E00DAB8E10023299A136074
:104B70002A00CC4B1A409A4200D1BBE1029E039F0F
:104B8000002200233000390002F02CFC002813D052
:104B90000123289A13602A9B002B00D1D4E1C24B39
:104BA0002A9A1360013B9A4650461DB03CBC904681
:104BB0009946A246AB46F0BD1AAB01931BAB0093DE
:104BC00032003B00200001F0D7FE2B0D834600D0C1
:104BD000ADE11A9B98461B9B43441E00B34BF31850
:104BE000202B01DC00F095FC4022D31A9D40B04BF5
:104BF0000298F318D840284304F070FA0123AD4D11
:104C000016934919751E0022AB4B03F093FEAB4A75
:104C1000AB4B03F01DFCAB4AAB4B02F0F3FC0600C0
:104C200028000F0004F020FAA84AA94B03F010FC5A
:104C300002000B003000390002F0E4FC06000F0017
:104C400004F0DCF90022069000233000390002F065
:104C5000CFFB00280DD0069B1800994604F004FAFB
:104C60003B00320002F0BEFB434258414B461B1A48
:104C700006930123069E0A93162E10D89549F30039
:104C8000C91808684968029A039B02F0C5FB00280E
:104C900001D100F044FC0023013E06960A934346EE
:104CA0005D1B002304932B00013B984604D5012390
:104CB0005B1B049300239846069B002B00DA89E2D5
:104CC0009C46099300239946E044269B092B00D972
:104CD0003DE10126052B02DD0026043B2693269BA1
:104CE000032B01D100F042FD01DC00F0F8FC269B13
:104CF000042B01D100F06DFC01230893269B052BAA
:104D000001D000F0F2FC279A069B944663440B9373
:104D1000013307931F1E00DC01270023079D6364F6
:104D20000021172F00DC20E1012204335B00180072
:104D3000143011000132B842F8D96164200001F04A
:104D400023FB824620640E2D00D816E11B9B002B0E
:104D500000DA21E2069A0E2A00DD1DE25D4BD20048
:104D60009B181A685B6804920593279B002B01DA55
:104D700000F03AFC029E039F049A059B3000390024
:104D800002F05CFF04F03AF9814604F06DF9049AF0
:104D9000059B03F05DFB02000B003000390003F0BF
:104DA000C9FD53465D1C4B46524630331370079B7A
:104DB00006000F00012B45D00022474B03F048FBB3
:104DC0000022002306000F0002F00CFB002800D098
:104DD00068E30222079B5244534402931500A14604
:104DE0000EE000223C4B03F033FB002200230600C0
:104DF0000F00013502F0F6FA002801D000F0C1FCE6
:104E0000049A059B3000390002F018FF04F0F6F810
:104E1000040004F029F9049A059B03F019FB020031
:104E20000B003000390003F085FD22006B1E30328C
:104E30001A70029B06000F00A846AB42D1D14B4628
:104E4000A1461C0032003B003000390002F0DAFBC2
:104E5000049A059B06000F0002F0DEFA00280CD130
:104E6000049A059B3000390002F0BCFA002800D1FA
:104E700018E34B46DB0700D414E36B1E1978504649
:104E800007E0984201D100F0FFFC023D29781D00A7
:104E9000013B1A003929F4D082460291029E013664
:104EA0001670FFE20000F07FE99500083204000070
:104EB00012040000000010FE0000F83F61436F6321
:104EC000A787D23FB3C8608B288AC63FFB799F5023
:104ED0001344D33F48960008000024400123299A38
:104EE0007D006D0813602A00BF4B03951A409A425B
:104EF00000D043E6BD4B289A1360029B002B0CD1D7
:104F00002D030AD12A9B002B01D100F0A7FDB84B3D
:104F10009A4608332A9A136046E62A9B002B02D150
:104F2000B44B9A4640E6B34B9A460333F2E73A0352
:104F3000B14D120B1543B14A29009D181A9B300040
:104F40009846002316935EE6AD4B9A462CE6012563
:104F50000023012201266D4226930892079527938C
:104F6000002300216364079B0B93200001F00CFADF
:104F7000824620640E2D00D9E8E6002E00D1E5E639
:104F8000029A039B069F0E920F93002F00DC51E3C1
:104F90000F213B000B40DA009A4B9B181D685E689E
:104FA0000C950D963D11EB0601D400F006FC964BD6
:104FB0000D401A6A5B6A0E980F9902F03FFE0323B8
:104FC000109011910293002D18D00C980D99230088
:104FD00001274C4699468C4E2F4206D0029B013346
:104FE00002933268736803F033FA6D100836002DAF
:104FF000F2D14B46A1461C000C900D910C9A0D9BD2
:105000001098119902F01AFE0C900D910A9B002B3A
:1050100009D00C980D990022774B02F0E9F900288D
:1050200001D000F07EFC029804F01EF80C9A0D9B53
:1050300003F00EFA754B002202F0E4FA744B0500FF
:10504000CE18079B002B00D16EE3069B1893079B9D
:1050500010930C980D9903F0D1FF1295139606004A
:10506000109D684B6A1ED2009B18303619685A682A
:10507000F3B256460136149115920293179603F037
:10508000F3FF02000B000C980D9903F053FC149AE7
:10509000159B060008980F00002800D1ABE3002004
:1050A0005C4902F0CBFD129A139B03F043FC52467D
:1050B000029B0C900D91137032003B0002F0ACF992
:1050C000002801D000F0BAFC32003B0000204A4921
:1050D00003F030FC0C9A0D9B02F08AF9002801D0F5
:1050E00000F0AEFC012D00D177E34A46149242460F
:1050F00019925A46179B554402951294109299465C
:105100000C9C0D9DD34612E032003B0000203A4932
:1051100003F010FC22002B0002F06AF9002801D0F5
:1051200000F062FC029BD146534500D14DE30022C2
:10513000394B2000290003F08BF90022364B040084
:105140000D003000390003F083F90F00060003F072
:1051500055FF804603F088FF02000B003000390045
:1051600003F0E8FB01234B449A4643463033DBB25D
:1051700098464B4642461A7022002B0006000F004C
:1051800002F036F90028BFD0109B5546DA469B4600
:10519000189B129C069385E1089A002A3ED0269A15
:1051A000012A00DC05E2079B5D1E4B46A94500DA9B
:1051B000EAE25D1B079B002B00DA14E39C46049A8D
:1051C000E0441700624404920121200001F09EF99E
:1051D000060026E0049A069BD21A5B4299460023F9
:1051E0000492099371E5C0460000F07F0F2700008C
:1051F0000C960008189600080000F03F01FCFFFF25
:10520000E8950008489600082096000800001C4019
:105210000000C0FC0000E03F000024404D46002696
:10522000049F002F0DDD4346002B0ADD3B00474560
:1052300000DD91E1049AFF1AD21A04924246D31A71
:1052400098464B46002B0ED0089B002B05D04B46B2
:105250005B1B9946002D00D080E159464A4620004C
:1052600001F01AFA83460121200001F04FF9099A52
:105270008146002A00D036E1269B012B00DC52E15A
:1052800001231F204344184000D12AE120231B1A88
:10529000042B00DCDCE31C23181A049B3F189C46FB
:1052A0008444634680440493049B002B05DD5946E7
:1052B0001A00200001F050FA83464346002B05DD1A
:1052C00049464246200001F047FA81460A9B002BDE
:1052D00079D1079B002B00DCF4E1089B002B00D167
:1052E0008FE0002F00DD4FE1099B0496002B00D0DA
:1052F000CFE1079A53469446013B9C44634608938A
:105300000123029A5D461A405346D046CB46079287
:105310000A9359462800FFF763FB030009903033D6
:1053200031002800029301F07BFA049A07005946E5
:10533000200001F08FFAC3688146002B00D0CDE039
:105340000100280001F06CFA82464946200001F075
:1053500043F85246269B134303D1079B002B00D1F1
:1053600021E3002F00DA18E2269B1F4303D1079B9D
:10537000002B00D111E243465F1C5346002B00DD99
:105380009EE24346029A1A70089B434500D1A6E26A
:10539000002329000A22200001F028F8049B0500C0
:1053A0009E4200D190E0310000230A22200001F04B
:1053B0001DF8002306000A220499200001F016F8C7
:1053C000B8460490A5E74946584601F029FA002856
:1053D00000DB7EE7069B5946013B06930A22002329
:1053E000200001F003F8089B8346002B00D00FE358
:1053F0000B9B002B04DC269B022B00DD32E30B9B76
:105400000793079B5746984623005C46B3464E4693
:10541000994607E0210000230A22484600F0E6FFF3
:105420002F00040031002000FFF7DAFA5346303035
:105430007D1C3870EB1A4345ECDB4B460027B14628
:105440005E46A3461C00029001225946200001F04E
:1054500083F94946834601F0E3F96B1E1A78002868
:1054600000DC98E0514606E0994200D182E1023D1D
:105470002A781D00013B392AF6D08A4601321A707B
:105480004946200000F0A8FF002E0BD0002F05D0C9
:10549000B74203D03900200000F09EFF3100200009
:1054A00000F09AFF5946200000F096FF00232B7071
:1054B000069B289A013313602A9B002B01D1FFF72A
:1054C00073FB1D60FFF770FB310000230A222000F0
:1054D00000F08CFFB846060004901AE701239A46B4
:1054E00033E71C20D9E60100200001F0D5F8269B07
:1054F0008146012B00DCE0E0002309934B461B6949
:1055000003339B004B44586800F0B6FF20231B1A5E
:10551000B7E620220298D31A9840FFF76DFB0023CC
:105520000A93FFF7BCFB029B002B00D0A8E6029871
:10553000039900220B0309D1D84B0B4206D0049BE0
:1055400001320133049301239C46E044099B0992F4
:10555000002B00D194E6D1E743466BE62A003100E8
:10556000200001F099F85A4601000600200000F0E2
:10557000D7FF59460500200000F02EFF4B46AB46F2
:10558000002B00D16FE668E631003A00200001F000
:10559000E3F80600A8E6002808D10299C90700D55B
:1055A00060E703E0023D2A781D00013B302AF9D074
:1055B00066E7169A002A00D199E1B94A94466344F5
:1055C000049A984494469C4463464D4617000493BD
:1055D000FAE501230893279B002B00DCC0E00B9326
:1055E00007931F00FFF799FB079B002B01DDFFF7D7
:1055F000C1FB00D0B0E0049805990022A94B02F04D
:1056000027FF029A039B01F011FF00230026994611
:1056100000285FD1534652465D1C31231370069B10
:10562000013306934946200000F0D6FE002E00D03C
:1056300034E737E7069B002B00D16AE10E980F99FB
:105640005D420F23984A2B40DB00D3181A685B6831
:1056500002F0FEFE2D110C900D91002D00D1E9E11C
:10566000022200230127914E02922F4207D0029B73
:10567000013302933268736802F0EAFE01236D1071
:105680000836002DF1D1002B00D1BFE40C900D9114
:10569000BCE47168200000F077FE3100050033693A
:1056A0000C319A1C92000C3000F01AFE01222900E5
:1056B000200001F051F804901BE6029B002B00D162
:1056C00035E719E7269B022B00DC06E6079B002B3B
:1056D00000D110E1279B5546DB430693A2E7002348
:1056E0000893269B022B00D175E7002300216364F9
:1056F000200000F049FE0023279301330893023B6A
:10570000824620640B930793FFF720FB029803F077
:10571000ABFC0C9A0D9B02F09BFE654B002201F046
:1057200071FF0500634BCE1800220C980D995D4B5C
:1057300003F000F92A0033000290039101F06CFE9F
:10574000002854D18021090673182A000298039971
:1057500001F04EFE002840D0002300269946B9E70C
:105760000123012507932793FFF7FAFB00230893F2
:10577000FFF7C9FA069B8A460133069331230B7063
:105780007EE645464C468DE6EE1A099BA9469C46A8
:10579000B4446346002509930CE50A9A53469246A1
:1057A0004246D946AB46551C002B00DDE0E043469F
:1057B000029A37001A70049E62E60E9A0F9B1092AE
:1057C000119302230293FFF7FEFB149BDA469946DE
:1057D000199B129C9846109B9B460E9A0F9B029217
:1057E0000393FFF7B3FA049B079A9F1AECE4002394
:1057F000002699460EE71298139902F029FE5346A7
:10580000029A0C900D911A70109B179D012B27D0B6
:10581000109B534402934B46C146A0462C00109364
:105820000022254B3000390002F012FE0F00060066
:1058300003F0E4FB050003F017FC0B000200390045
:10584000300003F077F83035029B257001340600F4
:105850000F00A342E4D1109B4446C8469946029DDE
:1058600000220C980D99154B01F0CCFE32003B0044
:1058700001F0BEFD002800D1A1E0189A6B1E197836
:1058800006925046FFF705FB069B824601330693BE
:105890003023020003700293FFF700FB0000F07F4B
:1058A00033040000000014404896000820960008C9
:1058B00000001C400000C0FC000024400000E03F4D
:1058C0000A9BD9469A46029BAB463D00392B61D0D4
:1058D0004246029B370001331370049ED0E50A9BB9
:1058E000D9469A46AB463D003700049EACE53623C8
:1058F0001A9A9B1A64E649460522200000F076FDBC
:1059000081460100584600F08BFF002800DD81E64B
:10591000E0E60E9A0F9B0C920D9302230293FFF781
:1059200075FB079B002B00D1F0E60B9F002F00DCDE
:1059300053E70C980D99069B0022013B18934B4BA3
:1059400002F086FD05000E0002980C950D960130C0
:1059500003F08AFB2A00330002F07AFD444B002258
:1059600001F050FE434B0500CE181097FFF771FB76
:1059700059460122200000F0EFFE4946834600F020
:105980004FFF00283CDD029B392B03D0099B3133AC
:1059900002930CE73923424637001370049E3922E4
:1059A0006B1E514667E50A9BD9469A464346AB466D
:1059B0005D1C029B392BEDD0002FE7DCF7E60C9A3B
:1059C0000D9B00202C4902F0B5FF32003B0001F096
:1059D00023FD002801D100E71D006B1E1A78302A34
:1059E000FAD0189B06935DE55546DA46109A4B4669
:1059F0009346189A4146129C06925046FFF749FA80
:105A0000002800D0D3E6029BDB0700D4CFE6BAE73C
:105A1000002331000A22200000F0E8FC0B9B060066
:105A2000002B01DD07935CE4269B022B1ADC0B9B09
:105A3000079356E402230293FFF7E8FA179DD0E795
:105A4000189B179D0693029953465046FFF721FA7B
:105A5000042B00D128E43C23181A1EE4074B9A4675
:105A6000FFF7A2F80B9B079330E6C04600002440E6
:105A700000001C400000C0FC0000E03F0C96000845
:105A8000F8B50C00060000F06FFC204FBB685D68A5
:105A900003239D431E4B2C1B9C466444240B1D4B2F
:105AA000013C24039C4207DD0021300000F0F4FF9C
:105AB000BB685B19984204D0300000F05DFC002008
:105AC000F8BD6142300000F0E7FF431C0DD0012219
