:020000040800F2
:10000000004000209518000875220008772200089B
:1000100000000000000000000000000000000000E0
:1000200000000000000000000000000085490008FA
:100030000000000000000000F149000879220008DB
:10004000E5180008E5180008E5180008E51800089C
:10005000E5180008E5180008E518000881220008E6
:10006000E5180008E518000899220008B1220008E8
:10007000E5180008DD220008E5180008E51800086A
:10008000E5180008E5180008E5180008E51800085C
:10009000E5180008E5180008E5180008E51800084C
:1000A000E5180008E5180008E5180008ED2200082A
:1000B000E5180008FD220008E5180008E51800080A
:1000C00010B5064C2378002B07D1054B002B02D02E
:1000D000044800E000BF0123237010BDA4000020ED
:1000E00000000000707D0008044B10B5002B03D009
:1000F0000349044800E000BF10BDC04600000000F6
:10010000A8000020707D00080023C25C0133002A93
:10011000FBD1581E7047000002B4714649084900DF
:10012000095649008E4402BC7047C04602B471466D
:1001300049084900095C49008E4402BC7047C0462A
:10014000002243088B4274D303098B425FD3030A16
:100150008B4244D3030B8B4228D3030C8B420DD329
:10016000FF22090212BA030C8B4202D312120902B7
:1001700065D0030B8B4219D300E0090AC30B8B42F5
:1001800001D3CB03C01A5241830B8B4201D38B03A3
:10019000C01A5241430B8B4201D34B03C01A524148
:1001A000030B8B4201D30B03C01A5241C30A8B428B
:1001B00001D3CB02C01A5241830A8B4201D38B0276
:1001C000C01A5241430A8B4201D34B02C01A52411A
:1001D000030A8B4201D30B02C01A5241CDD2C3098C
:1001E0008B4201D3CB01C01A524183098B4201D308
:1001F0008B01C01A524143098B4201D34B01C01AF3
:10020000524103098B4201D30B01C01A5241C3086A
:100210008B4201D3CB00C01A524183088B4201D3D9
:100220008B00C01A524143088B4201D34B00C01AC5
:100230005241411A00D20146524110467047FFE731
:1002400001B5002000F006F802BDC0460029F7D035
:1002500076E770477047C0468446101C62468C465D
:10026000191C634600E0C0461FB500F0EFFE0028F1
:1002700001D40021C8421FBD10B500F049FE404224
:10028000013010BD10B500F0E1FE002801DB0020B8
:1002900010BD012010BDC04610B500F0D7FE0028EB
:1002A00001DD002010BD012010BDC04610B500F0DA
:1002B00069FE002801DC002010BD012010BDC046F1
:1002C00010B500F05FFE002801DA002010BD01200B
:1002D00010BDC0469E2110B5C905041C01F00AFAE4
:1002E000002803D1201C00F0A3FD10BD9E21201C7E
:1002F000C90500F001FC00F09BFD80231B069C4615
:100300006044F2E7F0B5C6464E024702760A7B0A21
:100310004400C50FF7004800984600B5240E2A0097
:10032000DB00000EC90FBC468D4267D0221A002A9E
:1003300000DCA5E000283AD1002F00D193E0511E47
:10034000002900D0BCE00124DB1B5A0146D59B01EB
:100350009E09300001F0D8F905388640844200DD5E
:100360009DE0041B320020200134E240041BA64023
:1003700033005E1EB341002413435A0704D00F22FA
:100380001A40042A00D004335A0129D50134FF2C25
:1003900000D181E02A009B015B0AE4B25B02E40524
:1003A000580AD2072043104304BC9046F0BDFF2CEE
:1003B000E3D080213800C904084384461B2A00DDAD
:1003C00082E020206146D140821A604690400200BF
:1003D000501E82410A439B1A5A01B8D45A07CED103
:1003E000DE082A00FF2C3AD1002E00D1AEE0802397
:1003F000DB0333435B025B0AFF24CFE7211A0029AA
:1004000052DD002831D0FF2CB7D080203E00C00440
:100410000643B4461B2900DDAAE020266046C840FA
:10042000711A66468E4031004E1EB14101435B1881
:100430005901D3D50134FF2C00D187E0012278493E
:100440001A405B080B40134397E7002C00D0A7E04D
:10045000002B00D0B6E03B1E62D1002600227302C2
:100460005B0AE4B29AE7140087E7002F4DD0481EDC
:10047000002857D1634401245A01AFD50224DDE797
:10048000002A24D1621CD2B2012ADEDDDE1B7201F9
:1004900035D5FE1A0D005CE72A0000237EE7330005
:1004A000604A241A134068E7002963D1611CC8B26E
:1004B00001284EDDFF2949D063445B080C005CE74E
:1004C000FF2A41D00A0079E701229B1A84E7002C19
:1004D0001DD0FF2822D08024E404524223431B2A4B
:1004E00000DD8AE01C002025D440AA1A93405A1E41
:1004F0009341234362460400D31A0D0025E7002EE2
:1005000000D026E700220024A9E70C0035E7002BE5
:100510004DD0D243002AEDD0FF28E0D16346FF241E
:100520000D002AE7FF290FD0010073E7002B61D0EF
:10053000FF24002F00D120E780224146D203114240
:1005400002D0164200D13B00FF2416E7FF2400230F
:1005500024E7002CEAD1002B58D0002F00D10CE763
:1005600063445A0100D439E72E4A0C00134004E7D3
:1005700001215CE7002C1ED1002B40D0C94300298B
:100580000BD0FF2836D01B2947DC1C002026CC408E
:10059000711A8B40591E8B4123436344040047E783
:1005A000002B18D13B1E2DD00D00FF24E5E63B00AB
:1005B00004000D00E1E6FF281CD08024E404494239
:1005C0002343E0E7002F00D1D7E6DE1B72011FD5E1
:1005D000FB1A0D00D1E6FF24002F00D1CDE68022CA
:1005E0004046D2031042AFD01642ADD13B000D00C1
:1005F000FF24C2E66346FF24BFE601237AE73B00FF
:100600000400BAE680260022F603F0E63B00B4E6DA
:10061000331E00D0E2E6002221E70123BDE7C046F9
:10062000FFFFFF7DFFFFFFFBF0B557464E46DE465E
:100630004546E0B544024300C60F83B00F1C640A70
:100640001B0EB24653D0FF2B27D08022E400D204E9
:1006500014437F22524290469844002399469B4679
:100660007D027800FB0F6D0A000E009324D0FF2856
:1006700046D080230021ED00DB041D437F38474630
:10068000381A4F460F43BF00B9463300009A874FD0
:1006900053404A46BA5801939746002C4ED108233E
:1006A0009946F7339846FD3B9B467D027800FB0F49
:1006B0006D0A000E0093DAD1002D26D10020012111
:1006C0003300009A7A4F53404246101A4A460A4372
:1006D0009200BA581D009746009B2C009A468B4604
:1006E0005B46022B31D15346FF21002438E0002C19
:1006F00017D1042399460023984601339B46AFE760
:10070000FF20002D0BD10221DAE7280000F0FCFFCA
:10071000431F9D4076235B42181A0021AFE7032157
:10072000ADE7200000F0F0FF431F9C4076235B42C2
:100730001B1A9846002399469B4691E70C2399463D
:10074000F3339846FC3B9B468AE7032B00D1A5E098
:100750005546012B00D081E00123002100242B40CD
:100760006402C905600ADB070843184303B03CBCB8
:1007700090469946A246AB46F0BD80240023E40390
:10078000FF21EDE7FF210024EAE70123591A1B2985
:1007900066DD019A134000210024E1E78023DB039A
:1007A0001C4238D01D4251D01C436402640A3300FD
:1007B000FF21D5E763016C01A3423BD21B26002138
:1007C000013801251F0049005B00002F01DB9C421E
:1007D00001D81B1B2943013E002EF3D11C00631ED0
:1007E0009C410C4301007F310029CEDD630704D01A
:1007F0000F232340042B00D00434230103D5010030
:100800002C4B80311C40FE290DDD0123019AFF2174
:1008100013400024A4E78023DB031C436402640A22
:100820003300FF219CE70123019AA401640AC9B2A5
:10083000134095E71B1B1A260121C2E7009B8B463C
:100840009A4600244CE76302E5D500258024E403A2
:100850002C436402640A009BFF2181E70195C1E7F4
:1008600023002020CB40411A8C40611E8C411C4348
:10087000630704D00F232340042B00D0043463010A
:1008800005D50123019A01211340002468E70123C3
:10089000019AA401640A1340002161E78023DB036D
:1008A0001C436402640A5346FF2159E7F87D00089F
:1008B000387E0008FFFFFFF7F8B557464E4645461D
:1008C000DE46E0B54702460088467F0A360EC40F72
:1008D000002E47D0FF2E24D0FB008027FF041F43AB
:1008E000002399469A467F3E43465D025800DB0F3F
:1008F0006D0A000E984643D0FF283BD0EB008025C0
:100900000022ED041D437F383618731C41469B4678
:100910004B46614013430F2B64D875489B00C35866
:100920009F46002F42D108239946063BFF269A4650
:10093000DAE74146022A28D0032A00D1CEE0012A74
:1009400000D0ACE0114000200022CCB24002D20521
:10095000400AE407104320433CBC90469946A24617
:10096000AB46F8BD002F15D104239946033B002662
:100970009A46B9E7FF200222002DC5D00322C3E723
:10098000002D19D100200122BEE70124FF220C40D6
:100990000020DBE7380000F0B7FE7626431F9F40BB
:1009A00000237642361A99469A469DE70C239946CB
:1009B000093BFF269A4697E7280000F0A5FE431F53
:1009C0009D4076235B42181A00229DE78020002478
:1009D000C003FF22BAE73D005246ABE73D002100CD
:1009E0005246A7E73B0C9C462A04120C2B0C140021
:1009F000604665463F043F0C7C4342435D437B4376
:100A0000270C9B18FF18BA4203D980235B029C462F
:100A1000654424043A04240C121993015C1EA3417A
:100A20003F0C920E7D191A43AD0115432B0104D5DD
:100A300001235E466A081D40154332007F32002ABA
:100A400025DD6B0704D00F232B40042B00D0043589
:100A50002B0103D53200274B80321D40FE2A94DC47
:100A60000124A801400AD2B20C406FE78020C003E5
:100A7000074207D0054205D128434002400A4446B8
:100A8000FF2263E738434002400AFF225EE7012469
:100A9000A31A1B2B05DD0C400022002056E75E4602
:100AA000CBE72A002020DA40C31A9D402B005D1EB0
:100AB000AB4113435A0704D00F221A40042A00D036
:100AC00004335A0104D5012401220C4000203DE7E3
:100AD00001249B01580A0C40002237E780200124A2
:100AE000C00328434002400A0C40FF222EE7C046C4
:100AF000787E0008FFFFFFF7F0B54F46D646464622
:100B00004400C0B5C20F47024802400A8446664608
:100B10007B0A4800C90F9A46240E1500DB00000E20
:100B20008946F600FF2800D18FE001214F464F4053
:100B30003900914266D0221A002A00DC9DE000288C
:100B40003DD1002E00D18BE0511E002900D0B5E030
:100B500001249B1B5A0144D59B019F09380000F0DA
:100B6000D3FD05388740844200DD96E0041B3A003F
:100B700020200134E240041BA7403B005F1EBB4124
:100B8000002413435A0704D00F221A40042A00D02D
:100B900004335A0127D50134FF2C00D179E001221A
:100BA0009B015B0AE4B22A405B02E405580AD207C3
:100BB000204310431CBC90469946A246F0BDFF2C32
:100BC000E0D08021C9040E431B2A7BDC31002020A9
:100BD000D140821A9640721E96410E439B1B5A01C9
:100BE000BAD45A07D0D10122DF082A40FF2C33D1D2
:100BF000002F00D1A8E08023DB033B435B025B0AAC
:100C0000FF24D1E7211A00294CDD00282AD0FF2C2F
:100C1000B8D08020C00406431B2900DDAFE03000BF
:100C20002027C840791A8E40711E8E4106439B19B9
:100C30005901D6D50134FF2C00D185E001227A4933
:100C40001A405B080B4013439CE7002E00D070E76E
:100C50006BE73B1EC5D100227B025B0AE4B2A3E72F
:100C600014008FE7002E4DD0481E002857D19B1945
:100C700001245A01B5D50224E0E7002A25D1621CDF
:100C8000D2B2012A72DD9F1B7A0135D5F71A0D0009
:100C900064E7012200232A4086E73B00634A241AC6
:100CA00013406FE700296CD1611CC8B201284EDDEA
:100CB000FF2949D09B195B080C0063E7FF2A41D04C
:100CC0000A0081E701269B1B89E7002C1CD0FF2826
:100CD00021D08024E404524223431B2A00DD96E005
:100CE0001C002025D440AA1A93405A1E9341234346
:100CF000F31A04000D002DE7002F00D02EE700228C
:100D00000024A9E70C003DE7002B58D0D243002A6D
:100D1000EED0FF28E1D13300FF240D0032E7FF2998
:100D200010D0010078E7002B6ED0FF24002E00D1F8
:100D300028E780225146D203114203D06146114276
:100D400000D13300FF241DE7FF2400232CE7002CF3
:100D5000E9D1002B63D0002E00D113E79B195A0173
:100D600000D43EE7314A0C0013400BE7002C1ED1A3
:100D7000002B2FD1002E4FD033000D0002E70126AB
:100D800055E7002C1FD1002B43D0C94300290BD0BD
:100D9000FF2839D01B2944DC1C002027CC40791ABD
:100DA0008B40591E8B4123439B19040040E7002BC5
:100DB0001AD1002E24D180270022FF031BE7330025
:100DC00004000D00DEE6FF281ED08024E404494222
:100DD0002343DFE7002E00D1D4E69F1B7A0100D425
:100DE00037E7F31A0D00CDE6FF24002E00D1C9E647
:100DF00080225046D2031042A4D060461042A1D1B6
:100E000033000D00FF24BDE63300FF24BAE60123C2
:100E10006EE733000400B5E6002700221CE733002C
:100E2000B0E60123C0E7C046FFFFFF7DFFFFFFFBE9
:100E300041024300C20F490A1B0E00207E2B0DDD2C
:100E40009D2B0CDC802000040143952B0ADC9620AE
:100E5000C31AD9404842002A00D108007047034B0A
:100E6000D018FBE7963B9940F4E7C046FFFFFF7FB1
:100E700070B5002830D0C317C4185C40C50F2000DF
:100E800000F042FC9E231B1A962B0DDC9622D21AF0
:100E900094402A006402640ADBB26402DB05600A43
:100EA000D2071843104370BD992B19DC9922D21A2E
:100EB000002A29DD94402200144C1440510704D02C
:100EC0000F210A40042A00D00434620113D4A40183
:100ED000640ADBB22A00E0E7002200230024DCE7FA
:100EE00005222100121AD140B922D21A9440621E62
:100EF00094410C43DAE7054B2A001C409F23A401D0
:100F00001B1A640ADBB2C8E72200D5E7FFFFFFFB2C
:100F1000F0B54F464646D6465C00C0B51F03DB0F12
:100F20009A46174B0E034D0084468046360B6D0DD6
:100F3000C90F91463F0B640D01209D4208D09C4291
:100F400001D0A5420BD01CBC90469946A246F0BDEC
:100F500063463343F7D1AC42F5D13A43F3D1012094
:100F6000BE42F0D1C845EED1514507D0002DEAD19F
:100F700063461E433000461EB041E4E70020E2E72E
:100F8000FF070000F0B54546DE4657464E46E0B541
:100F90001F033D0B2C4F0E034C00AB465D008446F7
:100FA000360B640DC90F90466D0DDB0FBC422AD085
:100FB000254FBD422DD0002C0FD130430700814674
:100FC00078427841C0B2002D17D15F463A4314D120
:100FD0004B460020002B0AD006E0002D02D15846D7
:100FE000024301D0994218D04842012108433CBC39
:100FF00090469946A246AB46F0BD0028F2D00120AB
:10100000013B1843F3E737000743D1D002204042A9
:10101000EDE75F461743CED0F8E7AC42E4DC03DAF5
:10102000481E01210843E2E75E45DDD806D00020D6
:101030005E45DCD20123481E1843D8E7C445D3D807
:101040000020C445F6D3D2E7FF070000F0B54E46B6
:101050004546DE4657465C00E0B51F03DB0F994668
:101060002A4B0E034D00C90F8446360B6D0D8B467F
:1010700090463F0B640D9D4220D0244B9C4222D0D1
:10108000002D12D1304343424341DBB2002C1FD02C
:10109000002B0CD04B460120013B034318003CBC05
:1010A00090469946A246AB46F0BD002C16D0CB45E3
:1010B00017D05B46594201230B43EFE7310002236F
:1010C0000143EBD1D9E7390002231143E6D1D7E739
:1010D0003A43DDD100230028E0D0EAE73A43E6D1E5
:1010E000E7E7A542E5DC05DBBE42E2D807D00023F6
:1010F000BE42D3D25946012301390B43CEE7C44542
:10110000D7D80023C445F5D3C8E7C046FF07000081
:10111000F0B557464546DE464E46E0B50C039846C8
:101120004E00230B87B0070092469B46760DCD0FED
:10113000002E6BD06D4B9E4235D080245B46420F13
:101140002404DB0014431C43C3009946684BA346A8
:101150009C46002300276644029343461C035A0022
:10116000DB0F5046240B520D984600D176E05F4BC2
:101170009A426DD08023410F1B040B435C49E4006D
:101180008C461C43C300002062444146B6186940A7
:10119000721C0191944607430F2F00D9B0E0554AC5
:1011A000BF00D25997465B460343994600D087E07B
:1011B00000239B46023308270293CEE74246019262
:1011C000022867D0032800D10EE2012800D062E196
:1011D000002300240022994601990140CDB200214C
:1011E00012030B0D120B1B051343434A2405134036
:1011F0001C436400ED0764082C434846210007B0F7
:101200003CBC90469946A246AB46F0BD0343994686
:101210004FD05B46002B00D189E1584600F074FAAC
:1012200003000B3B1C2B00DD7AE11D22D31A3A0090
:1012300001005C46DA4008398C4013008F4023439C
:101240009B46B94600232D4E0027361A029384E7A9
:10125000534623432AD10024022096E753462343D2
:1012600020D0002C00D157E1200000F04DFA0300FF
:101270000B3B1C2B00DD49E11D21CB1A514602001E
:10128000D9405346083A944093400C431B4A121AE3
:1012900000207AE70125019B144C1D400023002209
:1012A00099469CE70024002201206EE75346032064
:1012B0006BE700239B4601330427002602934CE78B
:1012C000032381460C27029347E780220023002551
:1012D00012039946054C82E75C464B4602986FE73D
:1012E0005C464B46019502986AE7C046FF0700003E
:1012F00001FCFFFFB87E0008FFFF0F800DFCFFFF21
:101300004A464946170C1A0C1B041B0C080419000A
:10131000000C41431500884619007D43794303952D
:1013200089462900150045434D44029545462D0C3C
:10133000AA46029D5544A94506D98A4680214902FC
:101340008946CA4451460391290C04914146090437
:101350002D04090C88462900250C24044144240C42
:101360000591210041438846210079438A4668431C
:10137000414650448146080C48446F43824503D996
:101380008021490289464F44010C8946390049446D
:10139000029141460F0404993F0C88460004C0198D
:1013A00080444146049159460F0C0904090C8846B3
:1013B00059438A4639005143894641464A4351467A
:1013C000090C8B467B43D2185A44934203D980239D
:1013D0005B029B46D94451460904090C8A464146A2
:1013E00061437C43130C12044B445244A1468A4689
:1013F0003C0041466C434D4351464D440F0C7D1912
:10140000A94503D98021490288464444049F039991
:10141000B84641448B468345804141428846514607
:1014200008042F04000C3F185846029910188946EA
:10143000904292414F44BA46524299469346C24422
:10144000D144CB448F42BF41C245894199459B411C
:10145000934592417F4249422D0C52420F435B42D9
:1014600013437F19FF185B463C19DB0D059A640294
:101470001C43430213435D1EAB415A46C00D034358
:1014800052021343E20156D501205A080340134388
:10149000E207134364085A48604400284DDD5A07A8
:1014A00009D00F221A40042A05D01A1D9A429B41E6
:1014B0005B42E4181300E20104D58020514AC000C9
:1014C00014406044504A904200DDE3E60125DB0809
:1014D00062071A436402019B9146220B4405640D86
:1014E0001D407CE6802259461203114208D0144266
:1014F00006D122431203120B45469946434C6EE631
:101500005B461A431203120B404C68E60300544634
:10151000283B9C400023B9E600F0F6F82030A6E610
:101520000300283B9F400023BB4699468AE600F013
:10153000EBF8203074E6B446ADE701252A1A382AC4
:1015400006DD019B00241D4000230022994646E64B
:101550001F2A21DC20252000AD1A1E00AB40A84028
:10156000D6405D1EAB4130431843D440430709D0F9
:101570000F230340042B05D00300181D98429B4104
:101580005B42E418230221D50125019B01241D4063
:1015900000230022994622E61F2521006D42281AC9
:1015A000C1400800202A1DD05F35AA1A9440234369
:1015B0005C1EA341072503431D400022002D09D0D6
:1015C0000F2200241A401800042AD6D10300650710
:1015D0006402220BDB082B4301259946019B002462
:1015E0001D40FCE50024E2E780220125120322438E
:1015F00001991203120B0D409946044CEFE5C046C9
:10160000FF030000FFFFFFFEFE070000FF070000D2
:1016100070B5002830D0C317C4185C40C50F200037
:1016200000F072F8174B184A1B1AD21A1F2A18DD3D
:10163000164AD21A9440002224035B05240B5B0D4A
:101640000021100024030A0D240B12052243104C24
:101650001B05224013435B00ED075B082B43190079
:1016600070BD210091400A000B21081AC4405B059F
:101670002403240B5B0DE3E7002500230024002254
:10168000DEE7C0461E04000033040000130400001F
:10169000FFFF0F808446081C6146FFE71FB500F07E
:1016A000B7F8002801D40021C8421FBD10B500F0D2
:1016B00049F84042013010BD10B500F0A9F80028EB
:1016C00001DB002010BD012010BDC04610B500F0A8
:1016D0009FF8002801DD002010BD012010BDC0468C
:1016E00010B500F055F8002801DC002010BD0120E5
:1016F00010BDC04610B500F04BF8002801DA0020FC
:1017000010BD012010BDC0461C2101231B049842BE
:1017100001D3000C10391B0A984201D3000A083982
:101720001B09984201D30009043902A2105C401839
:101730007047C046040302020101010100000000DD
:101740000000000070B5420045024E024C00C30F7D
:101750006D0A120E760A240EC90F0120FF2A06D048
:10176000FF2C03D0A24201D1B54206D070BD002D9E
:10177000FCD1FF2CFAD1002EF8D18B4206D00120EB
:10178000002AF3D12800451EA841EFE70020EDE72D
:10179000F0B5420045024C02C30F48006D0A120E1C
:1017A000640A000EC90FFF2A1ED0FF2821D0002A8C
:1017B0000AD16E426E41F6B200280FD1002C0DD135
:1017C0000020002D09D005E0002801D1002C01D017
:1017D0008B4211D0012158420843F0BD002EF7D0B2
:1017E000012001390843F8E7002DDED002204042F5
:1017F000F3E7002CDBD0F9E78242EBDC04DBA54207
:10180000E8D80020A542E8D20121581E0843E4E7A9
:10181000F0B542004D024C004602760A120EC30F8C
:101820006D0A240EC90FFF2A16D0FF2C18D0002AEB
:101830000AD170427041C0B2002C15D0002805D0EA
:10184000012001390843F0BD002C13D0994214D077
:1018500001205B421843F6E70220002EF3D1E4E7B3
:101860000220002DEFD1E2E7002DE7D10020002E6D
:10187000E9D0EDE7002DE9D1EAE7A24206DCDFDBA3
:10188000AE4203D80020AE42DAD3DCE70120494261
:101890000843D8E70D4885460D480E490E4A0023F7
:1018A00002E0D458C4500433C4188C42F9D30B4A14
:1018B0000B4C002301E013600432A242FBD300F082
:1018C00025FD05F0EFFD00F0AFF8FEE70040002039
:1018D00000000020A40000202C930008A400002099
:1018E0005C280020FEE7000010B50448FA2404F04C
:1018F0007DFD6400200002F0EFFEFBE7207F000882
:10190000074810B504F072FD064B07481B78FF2B03
:1019100000D0064804F06AFD642002F0DDFEFBE71B
:10192000457F0008C0000020637F0008987F000802
:1019300010B5084C2388632B03D905F0B1FC0023B4
:10194000238005F093FC238819200133238002F0C3
:10195000C3FEEEE7C200002010B5034804F046FDC8
:1019600004F02EFE10BDC046F87E0008802110B5A0
:1019700001228901034801F049F8FF22024B1A7045
:1019800010BDC04600040048C0000020192300B567
:1019900099B00B93183B0C9310931293013314934B
:1019A00080235B0215938023DB0210221693002311
:1019B0000BA81192179301F0DBF8002801D0FFF774
:1019C000D5FF07230093053B0193002301216846BF
:1019D0000293039301F042FB002801D0FFF7C6FFFA
:1019E000104B04A804930023069380239B000593C7
:1019F00001F014FC002801D0FFF7B8FF01F0DCFB78
:101A0000FA218900FEF79CFB00F03EFE042000F066
:101A100055FE012000220321404200F0FBFD19B0D9
:101A200000BDC04601000100F0B5A5B000F09EFC6D
:101A3000FFF7ACFF8021EA4E0903726980250A4353
:101A400072617369AD010B4080210C930C9B72692C
:101A5000C9030A4372617369E2480B4080210D9308
:101A60000D9B726989020A437261736901270B40F9
:101A700080210E930E9B7269C9020A4372617369D9
:101A800000220B400F9329000F9B00F0BFFF902016
:101A900000221E21C00500F0B9FFCA2100228901E1
:101AA000D14800F0B3FF1F9500251FAC2100CD48A1
:101AB0006760A560E56000F0EDFE90202100C005A4
:101AC0001F976560A56000F0E5FE90201E232100B1
:101AD000C0051F936760A560E56000F0DBFE302362
:101AE0001F93C24B2100BF486360A56000F0D2FE87
:101AF000CA2321009B01BC481F936760A560E56075
:101B000000F0C8FEBA4B2100B7481F936560A5607E
:101B100000F0C0FE802390205B001F93B34B210098
:101B2000C0056360A56000F0B5FE2A000321072010
:101B300000F070FD072000F09DFD73692A003B4313
:101B40007361736903213B400B930A200B9B00F0E8
:101B500061FD0A2000F08EFD2A0003210B2000F019
:101B600059FD0B2000F086FDA24EA34B30003360E0
:101B700004237361C223FF337560B560F56037617C
:101B8000B561F56135627562B362F562356377639D
:101B900000F01AFCA84201D0FFF7E8FE0A231F93C9
:101BA00080235B016360802321005B053000A3601C
:101BB00000F0B0FC002801D0FFF7D8FE0B23210075
:101BC00030001F9300F0A6FC002801D0FFF7CEFEE6
:101BD0000C23210030001F9300F09CFC002801D052
:101BE000FFF7C4FE0D23210030001F9300F092FC8C
:101BF000002801D0FFF7BAFE804D814B01222B60F7
:101C0000804B28006B600023EA60AB602B616B6146
:101C1000AB61EB612B6200F00BFF002801D0FFF7F6
:101C2000A5FE0021280000F059FF002801D0FFF791
:101C30009DFE0021280000F077FF002801D0FFF76B
:101C400095FEE022704D714BD2002B608223EA603A
:101C500080225B006B6000239200AA61D93AFF3AB0
:101C6000AB602B616B61EA612B626B62AB62213A04
:101C70002B6328000833EA626B6301F0C5FC00287F
:101C800001D0FFF773FE6248624B0C220360E12330
:101C90009B014360002342618360C36003618361F1
:101CA000C3610362436202F0A9FB002801D0FFF781
:101CB0005DFE594E594B0C223360E1235B02736089
:101CC00000233000B360F36033617261B361F3618C
:101CD0003362736202F092FB002801D0FFF746FEE8
:101CE0004F48504B7F220360002382608032436064
:101CF000C26003614361836101F066FB002801D08B
:101D0000FFF734FE9027FF0501220421380000F080
:101D10007DFEC04601223800082100F077FE424BCC
:101D20003000196804F012FB80220692603A049297
:101D300080222D4B5201390005970397019328000B
:101D400002920092022204F095FB2800002505F083
:101D500013FA09A8099502F0C7FC344B0A951860DC
:101D60000AA802F0C1FC324E2F4B3200186010ABB3
:101D70009C4683CA83C303CA03C32900604602F09A
:101D800093FC2C4B186015AB9C4633006246143311
:101D900083CB83C203CB03C22900604602F084FCDC
:101DA000254B18601AAB9C4633006246283383CB20
:101DB00083C203CB03C22900604602F075FC2200F7
:101DC0001E4B3C3618600BCE0BC220000ACE0AC256
:101DD000290002F069FC1A4B186002F060FCFEE773
:101DE00000100240000800480004004800002110D4
:101DF00078C100005C27002000240140342400202A
:101E0000005800405D3E30208C230020003001400F
:101E10009C250020003801400C260020004800408E
:101E20006C23002000280040582700209425002023
:101E3000887D000898250020542700207C2600205B
:101E400090250020034B026810B59A4201D100F0A2
:101E50009DFA10BD002C0140802110B5012289019E
:101E6000034800F0D3FDFF22024B1A7010BDC0469C
:101E700000040048C000002007B50120114B9969FB
:101E80000143996180219A69490502400092009AB4
:101E9000DA6906380A43DA610022DB690B400193F4
:101EA0001100019B00F0B6FB0220002203214042FA
:101EB00000F0B0FB012000220321404200F0AAFB09
:101EC00007BDC046001002407FB50D4B02689A4224
:101ED00013D180200B4A800091690143916193697D
:101EE00001A903400093009B0F2301930C3B029335
:101EF00000230548039300F0CDFC07B000BDC046A9
:101F00000024014000100240000800487FB50F4B3C
:101F100002689A4217D1C0231B01019312230322A6
:101F2000029301A9113B0A4803930492059300F020
:101F3000B1FC8020074AC003D1690143D161D36954
:101F400003400093009B07B000BDC046005800400E
:101F50000004004800100240054B02689A4205D177
:101F60008023044A1B02116A0B4313627047C04668
:101F70000028004000100240F0B5294B026887B0ED
:101F800006009A4249D18027264B7F019A6990200A
:101F90003A439A619B6900253B400093009BE023F4
:101FA0000193DE3B0293C005013301A9049303951D
:101FB000059500F06FFC1C4C1C4B20002360102387
:101FC00063607033A560E36025616561A561E761C9
:101FD00000F082FBA84204D012211548FF31FFF720
:101FE0003BFF144B74656662134C80222360002310
:101FF0006360A36023616361A361802320005B01B0
:10200000E260E36100F068FB002804D02221084868
:10201000FF31FFF721FFB465666207B0F0BDC0462F
:102020000030014000100240C42400203000024073
:10203000F07F00081C0002401027002070B50368E4
:102040005F4A88B00500934262D180205D4AC0019A
:102050009169002601439161936903A903400193AB
:10206000019BC023DB0003930223902004930133E0
:102070000693C005023B0793059600F00BFC524CFB
:10208000524B20002360102363607033E360802391
:102090005B01A66026616661A661E36100F01CFB3E
:1020A000B04204D0B6214A484900FFF7D5FE80234C
:1020B000484E9B00326813433360474B2C66656281
:1020C000464C8022236000236360A3602361636128
:1020D000A361802320005B01E260E36100F0FCFA71
:1020E000002804D0BF213A484900FFF7B5FE8023FD
:1020F0003268DB00134333601B206C66002203212F
:10210000656200F087FA1B2000F0B4FA08B070BDD9
:10211000334A9342FAD180202A4AC002D16900266C
:102120000143D161D36903A903400293029BC023F9
:102130001B01039302230493013306932948023BB6
:102140000793059600F0A6FB274C284B2000236040
:10215000102363607033E36080235B01A660266117
:102160006661A661E36100F0B7FAB04204D0AC2129
:102170001748FF31FFF770FE1D4B2C6665621D4C42
:102180008022236000236360A36023616361A361F5
:10219000802320005B01E260E36100F09DFA0028EB
:1021A00004D0BC210A48FF31FFF756FE1D206C66A3
:1021B00000220321656200F02DFA1D20A4E7C0462D
:1021C00000380140001002408026002044000240F8
:1021D000F07F00080000014058000240F02300207A
:1021E0000048004000080048CC2600208000024043
:1021F0006C0002408024002010B5010086B000224F
:102200000D2000F007FA0D2000F034FA8020144A67
:10221000000191690143916193696946034001930B
:1022200002A8019B00F0DEFF00F0CCFF0D4C0E4B2E
:102230000E4923600E4BE360FDF782FF0023013857
:10224000606020002361A36001F008FE030001200C
:10225000002B02D1200001F0FEFC06B010BDC046EC
:1022600000100240A8270020002C014040420F002F
:10227000E70300007047FEE710B502F03AFA10BD20
:1022800010B5102000F0C8FB202000F0C5FB802016
:10229000400000F0C1FB10BD10B5034800F0B0FADB
:1022A000024800F0ADFA10BD10270020C424002021
:1022B00010B5064800F0A4FA054800F0A1FA054858
:1022C00000F09EFA044800F09BFA10BD8026002022
:1022D000F023002080240020CC26002010B50248E6
:1022E00001F0C7FC10BDC046A827002010B5024869
:1022F00002F038F910BDC0469C25002010B50248F8
:1023000002F030F910BDC0460C2600200121114B0F
:1023100011481A680A431A605A6802405A601A68DB
:102320000E4802401A601A680D4802401A605A6846
:102330000C4802400F205A60DA6A8243DA621A6B54
:10234000094802401A635A6B8A435A6300229A6012
:102350007047C046001002400CB8FF08FFFFF6FEB1
:10236000FFFFFBFFFFFFC0FF2CFEFCFF1023064A10
:1023700010B5116800200B431360FFF73DFFFFF716
:102380007BFD002010BDC04600200240024A1368B9
:10239000013313607047C046E8270020014B1868DE
:1023A0007047C046E827002037B50190FFF7F6FFD9
:1023B000019C0500631C5A1E9341E418FFF7EEFFD1
:1023C000401BA042FAD337BDF8B504000120002C11
:1023D00072D0636C002B06D122004032A36420002F
:1023E0001370FFF771FD636CDB0600D579E0042202
:1023F00023689868104000D073E0626C4249114035
:1024000002220A43032162649A680A40012A00D02A
:102410006DE01968114202D1DA68120467D5DA68F2
:102420003A49256A0A40DA60A2696F039103E269BA
:10243000D2031143626B013A561EB2411603E268A1
:10244000114322690F43022A00D10420226B616AE2
:1024500052003A4332430243012904D1002D2CD1CA
:10246000802149020A43C220A16AFF30814202D082
:10247000E06A01430A438020D96840051143D960CE
:10248000A16B814202D0481E062807D8072558694B
:102490002940A8435861586901435961DB681C49C8
:1024A0000B409A4211D100200322A064636C934335
:1024B0001A00012313436364F8BD2020656C284390
:1024C0006064A06C0143A164CDE71222636C01201B
:1024D00093431A00102313436364A36C0343A36460
:1024E000EAE71023626C012013436364E4E71821D8
:1024F000DA688A43A1680A43DA6019696268890068
:102500008908114319618AE7FDFEFFFF1902FEFFEA
:10251000E7FF3F83F7B5002304000193403423789D
:1025200005000220012B2BD001232A68AE6B906896
:10253000237040075AD430484F680D6887423FD017
:10254000AB4018008023976A5B05384390629E4237
:102550000FD0013E062E0CD98B6807215069084028
:10256000834206D050690B40884350615069034351
:1025700053612B00103B022B03D900200023237052
:10258000FEBD1E4A80231168102D15D0112D15D0C7
:102590005B040B431360102DEFD1194B19491868D8
:1025A000FDF7CEFD0A2358430190019B002BE4D098
:1025B000019B013B0193F8E71B04EAE7DB03E8E733
:1025C000AB40916A99432B00103B9162022BD4D807
:1025D0000A4B1A68102D05D0112D05D00A490A4062
:1025E0001A60CAE70949FAE70949F8E72022696C45
:1025F00018000A436A64C1E701100000082701407F
:102600000000002040420F00FFFFFFFEFFFF7FFFA2
:10261000FFFFBFFF70B58901002814DA0F23C0B295
:102620000340083B114A9B089B009B180322104063
:102630009040FC321500114085408140DC69AC437C
:102640002143D96170BD032583082840A840FC358B
:102650002E00074A9B009B18C022864029408140DB
:1026600092009C58B44321439950EBE700ED00E001
:1026700000E100E01F2318401E3B8340014A136025
:102680007047C04600E100E0094A431E0120934222
:102690000DD8C021074A08485360036A09061B0287
:1026A0001B0A0B43036200200723906013607047EE
:1026B000FFFFFF0010E000E000ED00E0054B1A68AE
:1026C000042802D110431860704704218A431A601D
:1026D000FAE7C04610E000E070B504000120002CCD
:1026E00028D002232068A51CEB770268124BA16852
:1026F0001A4063680B43E1680B4321690B4361692E
:102700000B43A1690B43E1690B43134303600B4B7C
:102710001421C018FDF714FD094B80002064E36309
:1027200000200123A062E06220636063A063E418DC
:10273000EB77E07770BDC0460FC0FFFFF8FFFDBF2D
:1027400000000240F0B5461CF57F0224012D26D082
:102750000125F5770519AC46ED7F0027EDB2012D77
:1027600029D16646F477046887632668076CAE4310
:10277000BD402660C66B7560636043680568102BBA
:102780000FD1A260E160C36A2268002B0CD00E2337
:1027900013432360012300242A6813432B60200085
:1027A000F0BDA160E260EEE70A2313430422236038
:1027B00023689343EDE7F777F1E770B5841CE37F77
:1027C000022B04D004238363033B180070BD0E2149
:1027D0000368056C1A688A431A60012219689143DC
:1027E00019601100A940C36B5960E2770024831877
:1027F000426BDC771300A242E7D090472300E4E766
:10280000F8B504273E00016CC26B8E401568036862
:102810001C682E420DD03C420BD01968890602D4A8
:102820001968B9431960C36A5660002B19D09847DC
:1028300017E002273E008E402E4213D03C4211D0BA
:102840001968890606D40A241968A1431960012170
:10285000C319D97756600022431CDA77836A934202
:10286000E5D1F8BD082637008F403D42F9D034420B
:10287000F7D00E251C68AC431C6001231C008C4063
:102880005460821C8363D3770022C318DA77036B0A
:10289000E5E70000F0B5564A0B688218541EA241C5
:1028A00089B00393002304320592039ADA4001D1E0
:1028B00009B0F0BD01229A4094466446039A224032
:1028C000029200D192E04A6801921022019E964342
:1028D000022E0DD107240F271C40A400A740DA08C0
:1028E00092008218156ABD430F69A7403D431562E7
:1028F000032214005D00AC40E4430768013E27401A
:102900000497019F3A40AA40049F3A430260012E77
:102910000ED8CA688668AA40264032438260624662
:1029200046689643019AD206D20F9A4032434260DB
:10293000C26814408A68AA401443019AC460D20055
:1029400054D501262B4A1D00946934439461926941
:102950009C0832400792079A274AA400A418A2684C
:10296000944603221540AD000C32AA4067469743B7
:102970009022D2059446002260450DD01F4A94460D
:102980003200604508D01E4E9218B04204D01D4E51
:102990000132B04200D0059AAA403A43A2601A4AD6
:1029A000029C1668029D019FE4433543FF0301D456
:1029B0003500254015605668029D019F3543BF03D1
:1029C00001D43500254055609668029D019F35432E
:1029D000FF0201D4350025409560D568029E019F15
:1029E0002E43BF0201D425402E00D66001335CE7A0
:1029F00000F0FFB700100240000001400004004852
:102A000000080048000C004800040140002A01D0E2
:102A1000816170478162FCE7044B10B55A6910422E
:102A200002D0586104F046FB10BDC04600040140CE
:102A300070B504000120002C3FD0250041352B78D3
:102A4000DBB2002B05D12200403213702000FFF7CB
:102A50005DFA242301212B702368E0681A68A668B8
:102A60008A431A6061681A4A0A401A619968194AC9
:102A700011409960012821D18021090231439960D8
:102A80005868154901435960D96800200A40DA6046
:102A9000616922690A43A16909020A43DA60216A6D
:102AA000E2690A431A60012219680A431A60202366
:102AB00060642B7020634234207070BD8421090251
:102AC000314399600228DBD1802109015960D7E7A1
:102AD000FFFFFFF0FF7FFFFF00800002F0B5040062
:102AE000413422780300D2B20220202A18D11D00DE
:102AF00040352E78012E13D01B68223020701E68BE
:102B0000233886431E601E68064F3E401E601E68C6
:102B1000314319601968084318600020227028703A
:102B2000F0BDC046FFEFFFFFF0B5050041352A7844
:102B30000300D2B20220202A17D11C00403426788C
:102B4000012E12D01B68223028701E68233886435D
:102B50001E601E68054F09023E4031431960196826
:102B60000843186000202A702070F0BDFFF0FFFFBE
:102B7000F0B5036885B00500DB0733D42B689B07ED
:102B800000D58AE02B681B0700D5CAE02B685B07DD
:102B900000D5EDE02B68DB061AD56A69BC4C04232E
:102BA000012A00D059E1616B02260B436363636B1A
:102BB0001A436263FFF7F2FB0700636B334200D1F5
:102BC00044E1F821626BAB698A43DB001343636322
:102BD0002B689B0600D567E1696A002900D0A4E153
:102BE000002018E00C21AA4C62680A40042A0BD08D
:102BF00063680B40082B10D1C02263685202134057
:102C000080225202934208D123689B03B6D56B6899
:102C1000002BB3D1012005B0F0BD6B68012B13D19F
:102C2000802322685B0213432360FFF7B7FB8026F3
:102C30000700B60223683342A0D1FFF7AFFBC01BE9
:102C40006428F7D90320E6E7002B16D12368914AC0
:102C500080261340236023688F4AB6021340236006
:102C6000FFF79CFB07002368334200D186E7FFF79C
:102C700095FBC01B6428F6D9E4E7052B05D180231A
:102C80002268DB0213432360CAE72368814A1340AA
:102C900023602368804A1340C6E70C227C4C63689B
:102CA00013420BD063681340082B15D1C022636810
:102CB000520213408022120293420DD123689B07D7
:102CC00002D5EB68012BA5D1F82122682B698A4334
:102CD000DB001343236055E7EA680123002A0FD085
:102CE0002268022613432360FFF758FB070023687E
:102CF0003342E9D1FFF752FBC01B0228F7D9A1E705
:102D0000226802269A432260FFF748FB07002368E7
:102D1000334200D136E7FFF741FBC01B0228F6D94A
:102D200090E7EA6901235A4C002A10D0626A022611
:102D300013436362FFF732FB0700636A334200D03C
:102D400024E7FFF72BFBC01B0228F6D97AE7626A5B
:102D500002269A436262FFF721FB0700636A33424F
:102D600000D113E7FFF71AFBC01B0228F6D969E769
:102D700080220021464C5205E3690091134208D19C
:102D8000E3691343E361E36913400393039B012366
:102D900000938027414E7F0033683B4206D0AB68EA
:102DA000012B13D1226A1343236230E033683B4383
:102DB0003360FFF7F3FA019033683B42EFD1FFF73E
:102DC000EDFA019BC01A6428F6D93BE70122002BDB
:102DD00014D1236A022793432362236A0332934365
:102DE0002362FFF7DBFA0600236A3B4225D0FFF798
:102DF000D5FA2B4B801B9842F6D923E7052B0BD134
:102E0000216A013B0B432362236A1A432262FFF7C4
:102E1000C5FA022706000DE0236A934304222362C9
:102E2000236A9343C0E7FFF7B9FA1D4B801B984212
:102E300000D907E7236A3B42F5D0009B012B00D065
:102E4000A8E6E369174A1340E361A3E6FFF7A6FA91
:102E5000C01B022800D8B0E6F4E6053203D1626B4D
:102E60009A436263ADE6626B0226134301226363F9
:102E7000636B93436363FFF791FA0700636B33421D
:102E800000D1A5E6FFF78AFAC01B0228F6D9D9E6D9
:102E900000100240FFFFFEFFFFFFFBFF007000403D
:102EA00088130000FFFFFFEF0C21464C62680A40C8
:102EB0008A4209D063680B40082B0ED1C022636898
:102EC00052021340934208D1636BDB0300D483E6C4
:102ED0002B6A012B00D09DE67EE62B6A002B11D0D9
:102EE0008026636B760233436363FFF757FA07006C
:102EF000636B334200D06FE6FFF750FAC01B022825
:102F0000F6D99FE6636B304A802613406363FFF770
:102F100045FA07007602636B334200D15CE6FFF7A7
:102F20003DFAC01B0228F6D98CE60C22254C6368BA
:102F30001340082B00D16DE62368244A1340236018
:102F400002292FD1FFF72AFA80260700B60423684A
:102F5000334221D10F22E36A93432A6B1343E36286
:102F6000A96AEB6A62680B43194980250A4013433A
:102F70006360802322685B0413432360FFF70EFA2B
:102F80000600AD0423682B4200D029E6FFF706FABD
:102F9000801B0228F6D955E6FFF700FAC01B02286D
:102FA000D5D94FE6FFF7FAF980250600AD0423686E
:102FB0002B4200D114E6FFF7F1F9801B0228F6D965
:102FC00040E6C04600100240FFFFFEFFFFFFFFFE8D
:102FD000FF7FC2FF70B51C4C88B0102221006846EC
:102FE00004F084FA210004AD10221031280004F00E
:102FF0007DFA0C22154E73681A40082A08D00C2A54
:1030000003D0042A1ED1124800E0124808B070BD57
:103010000F206A46990C0140545CF26A0240A95C98
:10302000C0228020520213404002834204D108484B
:10303000FDF786F86043E9E7934201D10548F7E7D9
:103040000548F5E70448E1E7D87D00080010024094
:103050000024F400006CDC0200127A00F7B50122B3
:103060004F4C06002368019113408B421FD33268F6
:10307000930728D4D3072ED40123226801991A403C
:10308000914200D27EE03368464C5B0700D580E079
:10309000FFF7A0FF6368444A1B061B0FD35CD840B0
:1030A000424B18600020FFF7A7F800200AE02368D1
:1030B000019993430B43236023681340019A9A427A
:1030C000D5D00120FEBDF02036494B688343B0685F
:1030D00003434B60CEE77268324D012A1AD12B6848
:1030E0009B03EED503216B688B4313436B60FFF7A3
:1030F00055F973680700012B1CD10C226B68134033
:10310000042BB9D0FFF74AF9294BC01B9842F4D9D8
:103110000320D7E7022A03D12B689B01E2D4D0E732
:10312000032A03D16B6BDB03DCD4CAE72B689B0754
:10313000D8D4C6E7022B0BD10C226B681340082BA6
:103140009AD0FFF72BF91A4BC01B9842F4D9DFE74E
:10315000032B11D00C226B68134200D18CE7FFF7D0
:103160001DF9134BC01B9842F4D9D1E7FFF716F9AC
:103170000F4BC01B9842CBD80C226B681340934274
:10318000F4D179E722689A43226022681A4298D1E2
:1031900079E76368074A1340F2681343636077E78F
:1031A00000200240001002401180000800000020B2
:1031B00088130000FFF8FFFF014B18687047C046F6
:1031C00000000020044B054A5B685B055B0FD35C85
:1031D000034A1068D8407047001002402180000860
:1031E00000000020072310B503240360094B5A6830
:1031F000224042605A68ED3422408260E0225B68DF
:10320000D20013400122C360034B1B6813400B60C4
:1032100010BDC0460010024000200240F0B5036817
:1032200085B00500DB0328D580220021444C5205DF
:10323000E3690091134208D1E3691343E361E36951
:1032400013400393039B0123009380273D4E7F008F
:1032500033683B4241D0C022236A920013403A4E69
:103260004DD1236A1E406B681E43009B2662012BD2
:1032700003D1E369354A1340E3612B68DA0706D5C9
:1032800003202F490A6B8243A86802430A639A0706
:1032900006D52B492E480A6B0240E86802430A63B0
:1032A0009A0606D5102026490A6B824328690243F4
:1032B0000A639A0306D5802021490A6B8243A869D4
:1032C00002430A6300205B0517D540211C4A136B9B
:1032D0008B4369690B4313630FE033683B433360EF
:1032E000FFF75CF8019033683B42B4D1FFF756F822
:1032F000019BC01A6428F6D9032005B0F0BD6968A7
:103300000A409342ADD08023226A206A11005B02FA
:1033100003432362236A0F48314003402362216242
:10332000D3079ED5FFF73AF807000222236A13421B
:1033300097D1FFF733F8084BC01B9842F5D9DBE76C
:103340000010024000700040FFFCFFFFFFFFFFEF96
:10335000FFFFFCFFFFFFFEFF88130000A0210268B3
:10336000F8B5D36804008B43D360FFF717F8FA274A
:1033700006002025BF002368DB682B4201D0002017
:10338000F8BDFFF70BF8801BB842F4D90320F7E72C
:10339000F8B5402403680500DA68224201D0002015
:1033A000F8BD01225242DA60FEF7F8FFFA27060064
:1033B000BF002B68DB682342F1D1FEF7EFFF801BD3
:1033C000B842F6D90320EBE770B5040001250028C8
:1033D00018D0437FDBB2002B02D10377FEF7BCFD90
:1033E0000223CA226377236820005A62773A5A621E
:1033F000FFF7CEFF2368051E06D0FF225A62042382
:1034000001256377280070BD9A68174920690A4032
:103410009A60626899680243606902430A439A604D
:10342000E2681A61A268196912040A4380211A61CC
:10343000DA688A43DA609B689B0606D42000FFF7AF
:103440008DFF002801D02368D7E7236807491A6C4D
:103450000A401A641A6CA1690A431A64FF225A626C
:1034600001236377CEE7C046BFFF8FFFFFFFFBFF5F
:10347000E021036810B55A688A435A608222416885
:10348000520091420CD18021826809028A4203D005
:103490008021C9008A4203D140211A688A431A60F8
:1034A0008021826A89018A4206D11968074C21402D
:1034B000196019680A431A60030001225D331A700B
:1034C00000235C300370032010BDC046FFDFFFFF08
:1034D000F8B505000C00160080272B689868384066
:1034E00006D0621CFAD0002C03D12800FFF7C0FFE1
:1034F000F8BDFEF753FF801B8442EED8F5E7F0B528
:10350000C02706000D00140085B00193FF0002AB38
:103510003168DA1D886828400CD0BD4203D10B7B8E
:10352000DBB213701378631CF4D0002C04D130008C
:10353000FFF79EFF05B0F0BDFEF730FF019BC01AFC
:103540008442E4D8F3E770B513000D0016000A00BA
:10355000C02149010400FFF7D2FF002805D0202335
:10356000226E0320134323660FE03200290020005F
:10357000FFF7AEFF0028F2D1C02133002A00C900B6
:103580002000FFF7BCFF0028E9D170BDF8B5822309
:103590001700426804000E005B009A420DD18022A1
:1035A00083681202934203D08022D200934204D156
:1035B0004021226813688B4313603A0031002000D9
:1035C000FFF786FF051E05D02023226E0325134337
:1035D000236616E0822362685B009A4211D1802242
:1035E000A3681202934203D08022D200934208D1F2
:1035F000C0213B003200C9002000FFF780FF0028F7
:10360000E2D12800F8BD0000F8B504000120002C2C
:103610004BD000232500A3625D352B78DBB2002B55
:1036200005D122005C3213702000FEF7A5FC0223B6
:10363000402221682B700B68002093430B60E0232D
:10364000E268DB009A4231D9F0263601B24233D12A
:103650000600206B002803D19A422FD9022323634E
:10366000A7686368A0693B4327693B4367693B439D
:10367000E7693B43276A3B43A76A3B438027BF0078
:1036800007403B430B60636A000C1A43636B1A43A9
:1036900004231840104306434E60CB69084A0020BB
:1036A0001340CB61012320662B70F8BD8026760184
:1036B0009A42CED0A062CCE70600FBE70123CEE71A
:1036C000FFF7FFFFF0B51F00030087B05C330192E6
:1036D00002931B7804000D000226012B00D17AE032
:1036E0000123029A1370FEF759FE23005D33009008
:1036F00003931B78DBB2012B67D11E00002D64D031
:10370000019B002B61D00323039A13706A469288B1
:103710000023A2876A4692882366E287A21D23645B
:10372000A56302329387D3872365E3648023A2686D
:103730001B029A4205D180232268DB0111680B43EA
:103740001360402223681968114202D119680A43A4
:103750001A60E021E068C9006268884247D9002AFF
:1037600002D0E28F012A06D12A880235DA60E38F7F
:10377000013B9BB2E3870226E38F002B16D1009A10
:1037800039002000FFF7DFFE002800D06CE0A368BE
:10379000002B06D105932368DA6805929B68059390
:1037A000059B266E731E9E41F6B20EE023689A6852
:1037B000324207D02A880235DA60E38F013B9BB2A0
:1037C000E387D9E7002F09D103260123039A137059
:1037D0000023029A1370300007B0F0BD7B1CCBD0E1
:1037E000FEF7DCFD009BC01A8742C5D8ECE7002A33
:1037F00002D0E28F012A09D1E28F012A19D92A8841
:103800000235DA60E38F023B9BB2E3870226E38F47
:10381000002BB4D023689A6832421AD0E28F012A72
:103820000FD92A880235DA60E38F023B9BB2E38727
:10383000EDE72A7801351A73E38F013B9BB2E387EA
:10384000E4E72A7801351A73E38F013B9BB2E387E3
:10385000DDE7002FB8D07B1CD9D0FEF79FFD009B81
:10386000C01A8742D3D8AFE7202323668FE7000032
:10387000F7B51F00030000925C331A7804000D00B6
:103880000226012A00D1AEE001221A70FEF786FD61
:10389000230001905D331B786168DBB2012B0BD0F4
:1038A00082225200914200D096E0A268002A00D005
:1038B00092E0042B00D08FE00126002D00D18BE098
:1038C000009B002B00D187E0002F00D184E0230073
:1038D0005D331A78042A01D005221A70009A002359
:1038E00022642200E026A01D08322366D787C787FE
:1038F000E068E3642365A563E787A787F60023688C
:10390000B04202D8D28F012A31D95A68714E324062
:103910005A60402223681E68164202D11E68324354
:103920001A60E0222600D200083690425DD90029B4
:1039300002D0E28F012A06D12A880235DA60E38FAD
:10394000013B9BB2E3870127E38F002B14D1F38F58
:10395000002B11D1019A08992000FFF7F4FD0028EF
:1039600000D0B3E0266E731E9E41F6B234E0802292
:103970005E6852013243CBE7002F0FD0E38F002B5C
:103980000CD0022123689A680A4207D000272A88AF
:103990006D18DA60E38F013B9BB2E387F38F002B56
:1039A0000FD0012123689A680A420AD0DB68009A86
:1039B0000F001380130002330093F38F013B9BB27F
:1039C000F387089B0133BFD0FEF7E8FC019BC01AC8
:1039D000089B8342B8D80326230001225D331A7066
:1039E00000235C3423703000FEBD002902D0E28F3A
:1039F000012A09D1E28F012A4CD92A880235DA60DE
:103A0000E38F023B9BB2E3870127E38F002B03D1B7
:103A1000F38F002B00D19DE7002F12D0E38F002BF6
:103A20000FD0022123689A680A420AD0E28F012A45
:103A300038D92A886D18DA60E38F023B9BB2E3879E
:103A40000027F38F002B1AD0012123689A680A42BD
:103A500015D0F28F8A422DD9DA68009901270A80A1
:103A60000A0002320092F28F023A92B2F287F28F8B
:103A7000BA4204D88022596852010A435A60089B0E
:103A80000133C2D0FEF78AFC019BC01A089B834217
:103A9000BBD8A0E72A7801351A73E38F013B9BB2AC
:103AA000E387B1E72A7801351A73E38F013B9BB2B4
:103AB000E387C5E71B7B009A01271370F38F013B57
:103AC0009BB2F387130001330093D8E720232366CA
:103AD00048E7C046FFEFFFFFF0B51F00822387B025
:103AE0000392426804000E005B009A420FD1836883
:103AF000002B0CD1030004225D331A700097039B46
:103B00000A00FFF7B5FE0500280007B0F0BD23004E
:103B10005C3305931B780225012BF5D00123059A10
:103B20001370FEF73BFC220004905D321378DBB289
:103B3000012B5DD11D00002E5AD0039B002B57D0C6
:103B400004236946137000238989A21D2366266415
:103B5000D187694689890232D187E022E168A3636F
:103B6000A387E387E3642365D200236891422AD9BF
:103B70005A68364802405A608023A2681B029A4263
:103B800004D122683248136803401360402322683E
:103B90001068184202D1106803431360E023250027
:103BA000DB00083599423FD8EB8F002B10D1049AE7
:103BB00039002000FFF7EAFC002844D1256E6B1E77
:103BC0009D41EDB214E08022586852010243D2E7D1
:103BD000012123689A680A4207D01B7B3370EB8F60
:103BE0007618013B9BB2EB87DEE7002F07D1032558
:103BF00001235D3423700023059A137084E77B1C36
:103C0000D2D0FEF7CBFB049BC01A8742CCD8EEE79C
:103C1000012123689A680A420AD0DB683380EB8F5F
:103C20000236013B9BB2EB87EB8F002BF0D1BEE756
:103C3000002FDCD07B1CF7D0FEF7B0FB049BC01A32
:103C40008742F1D8D3E720232366B7E7FFEFFFFFD2
:103C5000FFBFFFFF704701220368D96800201143AE
:103C6000D96019680A431A607047704770477047F7
:103C700070470222036810B51969040011420ED082
:103C8000D96811420BD0053A1A619B690432027758
:103C90009B0700D179E0FFF7E9FF00232377042297
:103CA00023681969114210D0D96811420DD0093A20
:103CB0001A61073222779A69C0239B0020001A42BA
:103CC00069D0FFF7D3FF00232377082223681969FF
:103CD00011420ED0D96811420BD0113A1A61DB693A
:103CE0000D32227720009B075BD0FFF7BFFF002338
:103CF0002377102223681969114210D0D968114224
:103D00000DD0213A1A6119322277DA69C0239B005B
:103D100020001A424BD0FFF7A9FF0023237701228E
:103D200023681969114207D0D968114204D0033AB7
:103D30001A612000FEF786F8802223681969114273
:103D400008D0D968114205D0023AFF3A1A61200022
:103D500000F0A0F8402223681969114207D0D96801
:103D6000114204D0813A1A612000FFF781FF20221E
:103D700023681969114207D0D968114204D0413A29
:103D80001A61200000F085F810BDFFF76EFF2000DB
:103D9000FFF76DFF81E7FFF768FF2000FFF767FF80
:103DA00091E7FFF762FF2000FFF761FF9FE7FFF752
:103DB0005CFF2000FFF75BFFAFE70000204A10B573
:103DC0000368904206D08024E405A04202D01D4C36
:103DD000A0420CD17024A3434C682343904212D0DC
:103DE0008024E405A0420ED0164CA0420BD0164C05
:103DF000A04208D0154CA04205D0154CA04202D0DC
:103E0000144CA04203D1144C2340CC68234380249B
:103E1000A3434C69234303608B68C3620B688362CE
:103E2000904208D0094B984205D0094B984202D0E5
:103E3000084B984201D10B6903630123436110BD14
:103E4000002C0140000400400020004000400140E0
:103E50000044014000480140FFFCFFFF70B5040032
:103E60000120002C14D025003D352B78DBB2002B2F
:103E700005D122003C3213702000FFF7EBFE022335
:103E800020682B70211DFFF799FF012300202B7064
:103E900070BD704770470000036806491A686A30B1
:103EA0000A401A609A682331FF318A439A602023BE
:103EB00003707047DFFEFFFF1300020070B5693228
:103EC000147805000220202C34D10138002931D08B
:103ED000002B2FD08024AE686401A64204D12C6947
:103EE000002C01D1014225D12E0068363478022001
:103EF000012C1FD00138307028005030E9640024B4
:103F0000038043802120EC661070286E0A4A4463C7
:103F100082620A4AC2620A4A02632A682832FEF7AB
:103F200011FC402220002B681A62996892180A43FB
:103F300034709A6070BDC046E13F0008134000082D
:103F40006F400008F8B5130002006A3214780500CB
:103F50000220202C3CD10138002939D0002B37D049
:103F60008024AE686401A64204D12C69002C01D1E2
:103F700001422DD12E00683634780220012C27D042
:103F800028000127583037700024696503802220FB
:103F9000EC661070686E0F4A446382620E4AC26219
:103FA0000E4A02632A68243294460A006146FEF7EC
:103FB000C9FB80222B685200196834700A431A60CA
:103FC0009A682000174340229F6099680A439A60CC
:103FD000F8BDC0461D400008634000086F4000085F
:103FE0002021036810B51B68426A0B400CD11100F8
:103FF00052310B80802113689A688A439A6040226C
:1040000019680A431A6010BD100002F0F9F9FAE7C6
:10401000704710B5406AFFF7FBFF10BD0368426AA6
:1040200020201B6810B5034013D111005A310B80BA
:1040300013680A4C19682140196099680334FF34E9
:10404000A143996099683F34A143996013006A3392
:104050001870100002F0E6F910BDC046FFFEFFFF29
:10406000704710B5406AFFF7FBFF10BD704710B5F1
:10407000446A210069310B78212B0DD123689A689D
:10408000120609D522000020523210801A68C03072
:1040900082431A6020230B7023006A331B78222B83
:1040A0000AD123689B685B0606D5230000225A3399
:1040B0001A802000FFF7F0FE1023E26E2000134369
:1040C000E366FFF7D3FF10BD406A0023020010B57E
:1040D0005A321380083A1380FFF7C8FF10BD000062
:1040E00070B504000568C2698368006929680343E4
:1040F000606903434A48134301400B432B606B68DC
:104100004849206A0B40E1680B436B60A369A968CA
:104110000343454801400B438021AB60434B0902F8
:104120009D4210D10320424B1B6B03404148C05CB1
:104130008A4246D0082819D8FBF7F8FF4F185418C0
:104140005E18181861003C4B9D422CD1C02080267F
:10415000374B80021B6B76020340B34254D007D822
:10416000002B26D080231B029A4233D0012019E075
:104170008026B602B3424CD08342F3D18A4231D179
:10418000636858082D4BC0186168FBF7D9FF83B2EC
:1041900000200F22190091430A001B0721685B0FC2
:1041A0001343CB6070BD264B9D4202D0254B9D42F0
:1041B000D8D18A4211D1FFF705F8636840005B0847
:1041C000E1E7082806D8FBF7A7FFF605DB05210580
:1041D0000505260001200023DBE7FEF7F3FF6168F9
:1041E0004B0802E06168184B4808C018FBF7A8FFAD
:1041F00080B2E8600020D5E7FEF7ECFEEFE7802311
:1042000061681B024808F0E78A42F5D1FEF7E2FE3A
:10421000D3E78A42F3D16368580880235B02B2E790
:10422000F369FFEFFFCFFFFFFFF4FFFF003801400E
:104230000010024029800008004400400024F400DF
:1042400000480040004C004000127A00436A30B53C
:10425000DA0706D50168284C4A682240846A22435E
:104260004A609A0706D50168244C4A682240C46A0D
:1042700022434A605A0706D50168214C4A68224009
:10428000046B22434A601A0706D501681D4C4A6830
:104290002240446B22434A60DA0606D501681A4C74
:1042A0008A682240846B22438A609A0606D5016898
:1042B000164C8A682240C46B22438A605A0610D585
:1042C0000168134D4A68046C2A4022434A608022E8
:1042D0005203944205D14A680E4C2240446C22435A
:1042E0004A601B0606D502680B4953680B40816C77
:1042F0000B43536030BDC046FFFFFDFFFFFFFEFFD5
:10430000FFFFFBFFFF7FFFFFFFEFFFFFFFDFFFFF71
:10431000FFFFEFFFFFFF9FFFFFFFF7FFF8B5040070
:104320000E0015001F002268D36933409B1B5942C1
:104330004B41AB4201D0002018E0069B0133F3D083
:10434000069B002B13D123680C491A6803200A40EE
:104350001A609A68A331FF318A439A6022002023B1
:10436000693213705370002368342370F8BDFEF770
:1043700015F8069BC01B8342D5D2E4E75FFEFFFF22
:10438000002337B50400C366FEF708F82368184A0F
:10439000050093420BD0174A934208D022002023F5
:1043A0000020693268341370537020703EBD1B6862
:1043B0001B070FD423681B685B07EFD580210E4BCA
:1043C00000220093C9032B002000FFF7A7FF00285D
:1043D0000BD1E3E78021084B0022009389032B00D7
:1043E0002000FFF79BFF0028E4D00320DEE7C04653
:1043F0000038014000440040FFFFFF0170B5041E7B
:1044000001D1012070BD050069352B78DBB2002B8E
:1044100004D1020068321370FDF710FE242301213D
:1044200022682B70136820008B431360FFF758FE3F
:104430000128E6D0636A002B02D02000FFF706FFB8
:10444000236808495A6820000A402A215A609A685D
:104450008A439A60012219680A431A60FFF790FFA5
:10446000D0E7C046FFB7FFFF030030B569331B78C4
:1044700002000220212B0FD114005234238811682E
:104480009BB2002B09D10A687E3082430A60402229
:10449000086802430A60002030BD80209568400112
:1044A000D36C85420DD1106900280AD118880233D7
:1044B000C005C00D0885D3642388013B9BB22380CF
:1044C000E9E7581CD0641B780B85F5E740210268AA
:1044D00010B513688B4313600300202269331A70F0
:1044E00001F08EFF002010BD020070B56A32117815
:1044F000036822292DD1010080245C310D88998C1C
:10450000640129408568436DA5421ED10469002CD1
:104510001BD1198002334365010000245A310B88F6
:10452000013B9BB20B80A3420DD103680C4D19686F
:104530002940196099682335FF35A94399602023E4
:10454000137001F06FFF200070BD5C1C4465197092
:10455000E2E70822996902240A439A61F3E7C04618
:10456000DFFEFFFF0F210268F8B5D3690400194090
:10457000106808D120252B4205D0284203D0200006
:10458000FFF7B2FFF8BD9668002961D00121350020
:104590000D4003D190277F00384259D00B4205D0FF
:1045A000C60503D51162E66E3143E16602210B4276
:1045B00006D0002D04D01162E66E49183143E16641
:1045C00004210B4206D0002D04D01162E66E0239A0
:1045D0003143E166190708D5810601D4002D04D0C6
:1045E00008211162E26E1143E166E26E002AC9D031
:1045F0002022134204D0104202D02000FFF774FFA3
:10460000E36E20001B0704D423689D6840231D40EF
:104610001AD0FFF741FC402123689A680A420FD064
:104620009A68606E8A439A60002809D01A4B4363E7
:10463000FEF7C3F80028A5D0606E436B9847A1E74A
:104640002000FFF713FD9DE7FFF710FDE56699E7F2
:10465000802149030B420BD0750209D5116222005B
:104660002023693213702000537000F017F889E797
:104670008022134205D0104203D02000FFF7F4FE41
:1046800080E74022134200D17CE7104200D179E755
:104690002000FFF71BFF75E7C9400008704710B501
:1046A00000F078FC002010BD7FB50B004668016863
:1046B000028A0825455F0024842D00D0EC1C03A845
:1046C00001900094300000F0A1FB0023012800D1EC
:1046D000039B180004B070BD10B5002800D1013054
:1046E00000F070FD002010BD10B5012000F02FFB80
:1046F00010BD10B500F07EFE012801D000F09AF93F
:1047000010BD000010B50F4B1A68824218D35C68C8
:104710001919884203D14168180009195960416884
:104720004418A24207D1084C2468A24203D054681E
:104730001268611841600260984200D0186010BD94
:104740001300E1E7D4200020C4000020F8B50400E5
:1047500000F04AFC384A39481368002B1ED138490A
:104760000733194236D0CD189D4380239B01C918C9
:104770004B1B29000025334ECB187560316007268E
:10478000083BB3431D605D605D1A136028C12E4B6A
:104790001D602E4B1D6080231B060360066834429B
:1047A00016D1002C14D02300072108330B4201D06E
:1047B0008B430833002B0BD024490D68AB4207D83C
:1047C00020490C686068834207D8126894420BD174
:1047D000002528E080239B01CCE72768BC46002FFA
:1047E000F3D021006446EDE70A68170022680A60EA
:1047F000C21A102A08D9E018410701D072B6FEE7A4
:1048000042606360FFF77EFF6368104AED1A15602F
:104810000D4A11688D4200D215601E433D000023F1
:1048200008356660236000F065FC6B0701D072B646
:10483000FEE72800F8BDC046C4000020C8200020C4
:10484000C8000020D4200020D0200020CC20002050
:1048500010B500281BD00E4A0838436812680400BF
:104860001A4201D172B6FEE70168002901D072B682
:10487000FEE79343436000F0B7FB064A63681168A4
:1048800020005B181360FFF73DFF00F033FC10BD04
:10489000C8200020CC200020030001220833436000
:1048A000C3600361002352428260036070470023AB
:1048B0000361704743689A684B608A609A685160E8
:1048C00099600368086101330360704703000A6858
:1048D00030B50833541C0BD103695A684A609160A3
:1048E0008B605960036808610133036030BD2300A9
:1048F0005C682568AA42FAD2EFE7416882680369DA
:104900008A60826851605968884200D15A600022EA
:1049100002611A68501E186070470000034B1B6844
:10492000013301D072B6FEE772B6FEE70400002044
:104930000B4A13681868203080F30988022080F33E
:104940001488BFF36F8F3FBCAE4608BC04BC62B690
:104950001847C046C046C046C046C046C046C046CE
:10496000DC20002010B58024031F64041C60043B7D
:1049700019600349043B1960143B40381A6010BDAC
:104980001D490008704700008022044B52051A6040
:10499000BFF34F8FBFF36F8F7047C04604ED00E049
:1049A00072B6044A136801331360BFF34F8FBFF32D
:1049B0006F8F704704000020054A1368002B01D157
:1049C00072B6FEE7013B1360002B00D162B6704760
:1049D00004000020EFF3108072B67047002080F3CF
:1049E0001088704700000000000000000000000078
:1049F000EFF309800E4B1A6820381060F0C044466F
:104A00004D4656465F46F0C008B572B600F028FC29
:104A100062B60CBC116808681030F0C8A046A94600
:104A2000B246BB4680F309882038F0C81847C04614
:104A3000DC20002010B5FFF7CDFF040000F0DCFA09
:104A4000002803D08022034B52051A602000FFF794
:104A5000C6FF10BD04ED00E0FA21064B10B5186842
:104A60008900FBF76DFB0722034B01381860034BED
:104A70001A6010BD0000002014E000E010E000E02B
:104A8000FF220A4B1204196810B50A431A60FF226C
:104A9000196812060A431A60FFF7DEFF0022044B72
:104AA0001A60FFF745FFFFF739FFC04620ED00E031
:104AB0000400002070B51600026C0400856B002A0B
:104AC0000AD106681000002E03D1606800F0A2FC35
:104AD00066600135A56370BD002E0DD1806802F0BF
:104AE00005FDA368226C30009B186268A3609342A6
:104AF000EFD32368A360ECE7C06802F0F7FC236CF7
:104B0000E2685B422168D218E2608A4202D262689F
:104B1000D318E3600020022EDBD12B005A1E9341F4
:104B2000ED1AD6E770B505002E004536FFF738FFC1
:104B3000347864B2002C10DCFF2333702E0044362E
:104B4000FFF73AFFFFF72CFF347864B2002C11DC3A
:104B5000FF233370FFF730FF70BD6B6A002BEBD083
:104B60002800243000F0C4FB002801D000F03CFCF9
:104B7000013CDEE72B69002BEAD02800103000F062
:104B8000B7FB002801D000F02FFC013CDDE770B539
:104B900004000D00002801D172B6FEE7FFF700FF08
:104BA000216CE36B22684B43D0185B1AD318E36087
:104BB00023006060A2600020FF224433A0631A70CB
:104BC0005A7085420ED12369834207D020001030ED
:104BD00000F08EFB002801D0FFF7D6FEFFF7ECFEB9
:104BE000012070BD20001030FFF756FE2000243059
:104BF000FFF752FEF2E770B506000D00002801D164
:104C000072B6FEE7080070434830FFF79FFD041EB0
:104C100008D0002D08D12060E66325640121200022
:104C2000FFF7B5FF200070BD030048330360F3E7D2
:104C3000F0B585B00400009101921D00002801D15B
:104C400072B6FEE7009B002B00D06FE0036C002BD8
:104C500000D16BE072B6FEE7019E002E03D1FFF794
:104C6000ABFE002054E0002F02D102A800F07CFB34
:104C7000FFF7A2FE00F0B8F9FFF792FE22004432DF
:104C800013785BB2013301D1002313702200453247
:104C900013785BB2013301D100231370FFF78CFE50
:104CA00001A902A800F070FB002839D1FFF778FEB7
:104CB000A76BE66BFFF780FEB7422BD1200001996E
:104CC000103000F003FB2000FFF72CFF00F012FA79
:104CD000002801D1FFF758FE0127FFF761FEA36B03
:104CE000E26B934201D3022DB6D12A000099200035
:104CF000FFF7E0FE636A002B03D02000243000F0B1
:104D0000F7FA002801D0FFF73FFEFFF755FE01201C
:104D100005B0F0BD2000FFF705FF00F0EBF9DBE781
:104D20002000FFF7FFFE00F0E5F99AE7022D02D11F
:104D3000E36B012B09D100F05DFB00270028CCD1EB
:104D4000019F002FC9D072B6FEE772B6FEE710B51C
:104D5000020000210120FFF74EFF041E07D00021B2
:104D600041600160C1600B000A00FFF761FF200095
:104D700010BD0000074A13681968074B002903D1CA
:104D8000012252421A6070471268D268D268526893
:104D9000F8E7C046E0200020B8210020F8B5040064
:104DA000144B154D1E6828680F000430FFF7A5FD51
:104DB000631C07D1002F05D0296810480431FFF784
:104DC00079FDF8BD2B6834195C60A64206D90C4BFE
:104DD000186829680431FFF779FDF2E7094B186874
:104DE00029680431FFF772FD074B1A689442E8D234
:104DF0001C60E6E700220020DC200020D8210020F3
:104E0000E4200020E0200020B8210020F0B595002B
:104E100085B0029028000F000393FFF797FC061E51
:104E200000D18EE05420FFF791FC041E00D185E0F4
:104E30000723043D066376199E43002300961A005B
:104E4000F95C3432A154FA5C002A02D00133102BF1
:104E5000F5D1230000250A9E43331D70062E00D98C
:104E60000626231D1800E6626664A5640193FFF719
:104E70001EFD20001830FFF71AFD07239E1B23009C
:104E800050332461A6616462E564039A1D7002993F
:104E90000098FFF767FD0B9B2060002B00D01C6083
:104EA000FFF77EFD2E4B2F4D1A6801321A602A68DB
:104EB000002A49D12C601B68012B1DD12A4E3700D6
:104EC0008C3730001436FFF7E7FCB742F9D1274E94
:104ED0003000FFF7E1FC264F3800FFF7DDFC2548E6
:104EE000FFF7DAFC2448FFF7D7FC2448FFF7D4FC8F
:104EF000234B1E60234B1F60234A1368013313604A
:104F0000224AE36A11688B4200D913601420584387
:104F1000154B01991818FFF7CDFCFFF74DFD1C4B01
:104F200001261B68002B06D02B68DA6AE36A9A42D6
:104F300001D2FFF729FD300005B0F0BD3000FFF7CA
:104F400087FC01267642F6E7114B1B68002BD3D174
:104F50002B68E26ADB6A9342CED82C60CCE7C0466D
:104F600074210020DC200020E82000208C2100207B
:104F7000A0210020C0210020EC210020D821002009
:104F8000E0200020E420002084210020882100204F
:104F9000D421002013B500240D4B009401938022EE
:104FA00023000C490C48FFF731FF01280BD172B6E2
:104FB00001220A4B52421A60094B1860094B1C60CF
:104FC000FFF75EFD13BD431CFCD172B6FEE7C04681
:104FD000B42100202D800008F9510008B8210020DC
:104FE000D421002000220020024A136801331360FC
:104FF0007047C04680210020334BF7B51B68002B5B
:1050000035D1324B1C6801341C60002C11D1304B5F
:105010001A681268002A01D072B6FEE72D4A196894
:105020001068186011602C4A136801331360FFF791
:10503000A1FE2A4F00263B689C4207D3244B1A68E6
:105040001268002A19D101235B423B60244B1B6884
:10505000DA6A14235343234AD358012B00D901267B
:10506000214B1B68002B00D001263000FEBD1F4ADB
:105070000026136801331360F2E71B68DB68DD6804
:105080006B689C42E1D32B1D18000193FFF735FCA0
:10509000AB6A002B03D028001830FFF72EFC144B0E
:1050A000E86A1A68904200D91860142358430D4BDF
:1050B000291D1818FFF7FEFB094BEA6A1B68DB6A1B
:1050C0009A42BBD30126B9E78021002000220020AC
:1050D000E0200020E4200020BC210020B821002096
:1050E000DC200020E8200020042200207C21002079
:1050F00088210020F8B52B4C2368002B01D172B613
:10510000FEE7FFF74DFC2368013B23602468002C79
:1051100004D00024FFF750FC2000F8BD224B1B6890
:10512000002BF6D014260127204B1A68002A1AD12A
:10513000002C01D0FFF71EFE1D4D2C68002C0AD05C
:105140000126FFF759FF002801D01A4B1E60013CD1
:10515000002CF6D12C60174B1B68002BD9D0FFF721
:1051600013FC0124D6E7DB68DC682000251D18301D
:10517000FFF7C3FB2800FFF7C0FB0F4BE06A1A687C
:10518000904200D9186070430C4B29001818FFF7A3
:1051900091FB0B4BE26A1B68DB6A9A42C4D3054B56
:1051A0001F60C1E78021002074210020C021002061
:1051B0007C2100200422002088210020E8200020FB
:1051C000DC20002070B5041E02D1FFF7DDFB70BDAE
:1051D000084B1D68002D01D072B6FEE7FFF704FFF3
:1051E00029002000FFF7DAFDFFF784FF0028EED149
:1051F000EBE7C0468021002070B5154C2368002BDA
:1052000006D1144B1B68012BF7D9FFF7BDFBF4E760
:10521000FFF7EAFE104D2E68FFF76CFF002EECD072
:10522000FFF7BEFBEB68DD68281DFFF766FB0B4A46
:105230001368013B13602368013B2360FFF7BCFB4D
:10524000286BFFF705FB2800FFF702FBD5E7C046F8
:1052500078210020E8200020EC210020742100208B
:10526000154B30B51A68154B002A02D001221A607E
:1052700030BD142412481A600268124923005343B7
:105280005D58002D12D0CC18656808336D68CB18B6
:1052900065609D4201D16B68636014235343C91854
:1052A0004B68D968084B19600260E1E7002A01D118
:1052B00072B6FEE7013AE1E78021002004220020D7
:1052C00088210020E8200020DC20002010B50C0000
:1052D000002801D172B6FEE7044B19681831FFF7B8
:1052E000F5FA01212000FFF759FD10BDDC20002058
:1052F000C36870B5DC68002C01D172B6FEE72500EA
:1053000018352800FFF7F9FA114B1B68002B1BD149
:10531000251D2800FFF7F1FA0E4AE36A11688B4257
:1053200000D913601420290043430B48C018FFF72D
:10533000C1FA0A4BE26A1B680020DB6A9A4202D972
:10534000074B0130186070BD29000648EFE7C046E2
:105350008021002088210020E8200020DC2000207F
:1053600004220020C0210020002801D172B6FEE7EF
:10537000034B1B680360034B1B6843607047C046C8
:10538000BC2100200022002070B504000D00002880
:1053900001D172B6FEE7002901D172B6FEE7FFF730
:1053A000FFFA0F4B002619682B685A1C13D00D4AC0
:1053B000266810686268864202D0012691420AD2AD
:1053C000881A0126834206D95B1A9B182B6020009D
:1053D000FFF7CAFF0026FFF7EFFA300070BDC046A6
:1053E00000220020BC2100200122014B1A607047DE
:1053F00004220020054B01201B68002B04D0044B25
:1054000018684342584140007047C046D4210020EC
:105410008021002070B5041E01D1002070BD154B05
:105420001B68984201D072B6FEE7836C002B01D155
:1054300072B6FEE7C26A416C013B83648A42ECD0DB
:10544000002BEAD1051D2800FFF757FA0723606CEF
:105450001B1AA361084BE0621A68904200D91860D9
:105460001423434305482900C018FFF723FA0120FD
:10547000D4E7C046DC20002088210020E82000205E
:10548000F0B51F00140085B00AAB1B780600D318D6
:10549000DBB20393039ACB190092DBB222000D001A
:1054A00000F0E7FB00280BD105B0F0BD002322007F
:1054B000009329003B00300000F039FB0134E4B2D6
:1054C000039BA342F2D1EFE70300F0B53C331B7816
:1054D00085B002930300050000263D331F78036862
:1054E0005B7C03932B68B0B21B7CF4B2D9004143C0
:1054F000A86B89B241183A190091D2B20021280054
:1055000000F0CEFE0134029BE4B2A34205D901367D
:10551000BB19039ADBB29A42E4D805B0F0BD10B5CE
:10552000036800211A7C03003C331B78806BDB008E
:105530005A4301F0E4FF10BD030010B504003D33F1
:105540001970436B1B689847636B20005B68984732
:1055500010BD030010B587331B780400002B01D069
:10556000FFF7DDFF00212000FFF7E6FF10BD70B55B
:105570000400FFF7A9FF23003D331D78013B1B7892
:10558000ED182368EDB25B7CAB4204D8200000F03C
:10559000A9FE002070BD230087331B78002B02D0AA
:1055A0002000FFF7BCFF20002900FFF7C5FF012006
:1055B000F0E7000002230370004870470822002033
:1055C0007FB50F250E006D44009308491300084A6B
:1055D000040000F0ABFE2800FFF7ECFF2A78010082
:1055E0000096044B200000F0AAFC7FBD1D6200085D
:1055F00051600008955D0008411808784B7800025A
:10560000C01880B2704720B505004018C0B2012B09
:1056100009D0A818C0B2002B05D0AA1AD0B2022B0C
:1056200001D0681AC0B220BD20B5851AEDB2012B99
:1056300009D04518EDB2002B05D0411ACDB2022B8E
:1056400001D08018C5B2280020BD0020704770B579
:105650000B780D0003704B78040043708B788370D7
:10566000CB78C3700B7903714B7943718B7983715C
:10567000CB79C3710B7A03724B7A43728B7A837244
:10568000CB7AC3720B7B03734B7B43738B7B83732C
:10569000CB7BC3730B7C112103742800FFF7ACFF95
:1056A000132160822800FFF7A7FF1521A0822800A0
:1056B000FFF7A2FFE08270BD70B50468867A257896
:1056C00072183541D2B2EBB2072A0AD9631C0360C3
:1056D00063780824A41BE4B2A340083A2B43DBB24E
:1056E000D2B28272012088400138184070BD70B576
:1056F0000400002358348165A372030005006C3355
:1057000019782000FFF7D8FF2B0020726D3319782D
:105710002000FFF7D1FF863560722B7823735A4241
:105720005341637370BD10B50C00FFF7C5FF012333
:10573000013CE4B2A340C01A40B210BD0300F0B572
:1057400004000F008DB00B9258339A790392DB79E5
:105750000693250058352B7A039A9B1ADBB20493E3
:10576000049A3B1C974201D96B461B7CDBB2089321
:105770006B7928790C260A936B469E571B7E310065
:105780005BB20793AB7B079A0593FFF74DFF059B31
:105790000990079A31000A98FFF735FF0B9B02002A
:1057A000002B16D0297B230086331970059B09999D
:1057B00000932000089B00F0BAF9049B9F420DD390
:1057C000FF1A069BFFB20133DBB20693002303935B
:1057D000BFE7EB7A002BF0D1697BE4E7039B5834F9
:1057E000FB18A3716B461B7FE3710DB0F0BDF0B5E4
:1057F00004008BB00700FFF77AFF230061331B78AA
:1058000058375BB2069323006E3319783800FFF7E0
:105810008AFF230008906F3319783800FFF783FF61
:1058200023007033197805003800FFF77CFF082348
:105830000990FB560393002B5CDD6B461B7E089999
:1058400004935B195B425BB20793BB7B079A05939A
:105850003879FFF7E9FE059B3871079A0899060029
:1058600005007879FFF7CFFE059B020001007871F3
:10587000032B63D81800FAF759FC02404A57039BE0
:105880000498F5188118EBB2C9B2009120003100DC
:1058900000F0EFF900282DD0230000220125583315
:1058A0009A71DA7123006A3319783800FFF704FF20
:1058B000230003906B3319783800FFF7FDFE0600D4
:1058C000002203992000FFF739FF310020002A0051
:1058D000FFF734FF29003800FFF7EEFE0028EFD174
:1058E0002300072258339A5606998A42DADB1B7B3B
:1058F0008634237009980BB0F0BD049B0398F61A08
:10590000013511180136EBB2C9B2F6B2BDE701227A
:10591000039B0498D61AAE19AD18121A8A180131D1
:10592000EBB2C9B2D2B2F0E7039A049B8A1A9D196E
:1059300001320131EBB2C9B2D2B2A6E701003300A5
:10594000A3E7F8B5046D0D001734FF2912D86029BC
:105950000AD97C300388E4186078002803D02378C3
:10596000AB4205D1A01CF8BD4029F5D97A30F1E74A
:105970002418F1E77E300088022724182600002131
:105980003000FFF739FE390024183000FFF734FEED
:1059900004368542F3D82078637800021843E2D0B9
:1059A000854201D1E01CDEE7A378E418F3E7F8B5FF
:1059B0001F0003006633040018780E00150003284A
:1059C00008D8636DFAF7B2FB02151A1E200098473B
:1059D0002D18EDB223005C3339001E705D7020007D
:1059E000FFF7AFFF011E03D02000FFF700FFC0B29A
:1059F000F8BD20009847361AF6B2EBE7200098472A
:105A00002D1AE6E7200098473618F5E7F7B51F008E
:105A100006000C00150000F0BDFA00230193736826
:105A2000397830009847134A030090421FD0124A39
:105A300001379042F3D02A0021003000FFF7B7FF72
:105A40003200663203001078032805D8FAF76EFB9F
:105A500002080B0DE418E4B2019AD318DBB2DDE7BB
:105A6000ED18EDB2F8E7E41AF5E7ED1AF9E7019859
:105A7000FEBDC046FFFF0000FEFF000010B5024C57
:105A80004460FFF7C3FF10BD815F0008036D70B570
:105A9000002B1DD0030000260500012402007533F1
:105AA0009E5782352E701C57833214700C331B782E
:105AB000002B0DD0012B0CD1030077331B785BB288
:105AC0009E4200DA2B707823C3569C4200DD13708F
:105AD00070BD0300742172331B7841565BB25B18B2
